:100000000C945D000C9485000C9485000C94850084
:100010000C9485000C9485000C9485000C9485004C
:100020000C9485000C9485000C9485000C9485003C
:100030000C9485000C9485000C9485000C9485002C
:100040000C94B5010C9485000C94E9040C942505DE
:100050000C9485000C9485000C9485000C9485000C
:100060000C9485000C94850000000007000201003C
:100070000003040600000000000000000102040864
:100080001020408001020408102001020408102002
:10009000040404040404040402020202020203032E
:1000A0000303030300000000250028002B000000CC
:1000B0000000240027002A00EC0511241FBECFEF0A
:1000C000D8E0DEBFCDBF11E0A0E0B1E0ECE1FDE0A3
:1000D00002C005900D92AC3AB107D9F712E0ACEA34
:1000E000B1E001C01D92AE35B107E1F710E0CAEBF7
:1000F000D0E004C02297FE010E948806C83BD107C9
:10010000C9F70E943F040C948C060C940000CF9217
:10011000DF92EF92FF926B017C010BC068EE73E0FF
:1001200080E090E00E94290281E0C81AD108E1082D
:10013000F108C114D104E104F10481F7FF90EF90BC
:10014000DF90CF9008950F931F93CF93DF93182FD5
:10015000092FEB0160E171E087EB91E00E9442031F
:100160002091AC013091AD01B9016F5F7F4F4AE042
:1001700050E087EB91E00E941D0469E171E087EB9C
:1001800091E00E9442034AE050E0612F702F87EB1C
:1001900091E00E941D0469E271E087EB91E00E940A
:1001A00042034AE050E0BE0187EB91E00E94250443
:1001B00061E0812F0E94D302BE01882777FD8095E0
:1001C000982F0E94870060E0812F0E94D302C0E038
:1001D000D1E061E088810E94D3026DE371E087EB9A
:1001E00091E00E9461036CE370E080E090E00E9487
:1001F000870060E088810E94D3026AE471E087EBA7
:1002000091E0DF91CF911F910F910C94610383B71F
:10021000817F846083BF83B7816083BFEAE7F0E0BA
:1002200080818F7780838FEF8093640083B78160B4
:1002300083BF889583B78E7F83BF089540E855E2DA
:1002400060E070E087EB91E00E946C051092AD01D8
:100250001092AC0139C0EE0FFF1FE257FE4F61E074
:1002600080810E94B40260E171E087EB91E00E941E
:1002700042036091AC017091AD016F5F7F4F4AE026
:1002800050E087EB91E00E941D0460E671E087EB8F
:1002900091E00E944203E091AC01F091AD01EE0FBC
:1002A000FF1FEE5FFE4F608171814AE050E087EBF7
:1002B00091E00E9425048091AC019091AD010196DE
:1002C0009093AD018093AC01E091AC01F091AD0150
:1002D000E730F1050CF4BFCF61E0809100010E948E
:1002E000B40261E0809100010E94D30264E771E0F2
:1002F00087EB91E00E9461036CE370E080E090E0A6
:100300000E94870060E0809100010E94D30266E8AD
:1003100071E087EB91E00C9461031092AD011092B3
:10032000AC011AC0880F991FFC01EE5FFE4F60817F
:1003300071816115710539F0FC01E257FE4F808132
:1003400091810E94A3008091AC019091AD01019632
:100350009093AD018093AC018091AC019091AD017F
:1003600087309105FCF20C9407011F920F920FB693
:100370000F9211242F933F938F939F93AF93BF932B
:100380008091AE019091AF01A091B001B091B10107
:100390003091B601232F2D5F2D3720F40196A11D3A
:1003A000B11D05C0232F2A570296A11DB11D209310
:1003B000B6018093AE019093AF01A093B001B093CA
:1003C000B1018091B2019091B301A091B401B091BB
:1003D000B5010196A11DB11D8093B2019093B301A7
:1003E000A093B401B093B501BF91AF919F918F914C
:1003F0003F912F910F900FBE0F901F9018950F9364
:100400001F939FB7F8940091B2011091B30120910E
:10041000B4013091B50186B5A89B06C08F3F21F08D
:100420000F5F1F4F2F4F3F4F9FBF322F212F102F96
:100430000027080F111D211D311D42E0000F111F63
:10044000221F331F4A95D1F7B801C9011F910F919F
:100450000895CF92DF92EF92FF92CF93DF936B01DB
:100460007C010E94FF01EB010EC00E94FF016C1B8A
:100470007D0B683E734038F081E0C81AD108E1086E
:10048000F108C851DC4FC114D104E104F10469F74B
:10049000DF91CF91FF90EF90DF90CF900895789407
:1004A00084B5826084BD84B5816084BD85B5826079
:1004B00085BD85B5816085BDEEE6F0E08081816017
:1004C0008083E1E8F0E01082808182608083808117
:1004D00081608083E0E8F0E0808181608083E1EBEF
:1004E000F0E0808184608083E0EBF0E080818160D7
:1004F0008083EAE7F0E0808184608083808182608D
:100500008083808181608083808180688083109275
:10051000C1000895833069F028F48130A1F0823061
:1005200011F514C08630B1F08730C1F08430D9F4B1
:1005300004C0809180008F7703C0809180008F7D00
:1005400080938000089584B58F7702C084B58F7D35
:1005500084BD08958091B0008F7703C08091B00072
:100560008F7D8093B000089590E0FC01E458FF4F28
:100570002491FC01E057FF4FE491EE2399F0F0E065
:10058000EE0FFF1FE255FF4F85919491DC019FB75D
:10059000F8948C91611103C02095822301C0822BB5
:1005A0008C939FBF08950F931F93CF93DF931F9258
:1005B000CDB7DEB7282F30E0F901E859FF4F84911D
:1005C000F901E458FF4F1491F901E057FF4F0491EE
:1005D0000023D1F0882321F069830E948A02698177
:1005E000E02FF0E0EE0FFF1FEC55FF4F8591949147
:1005F000DC019FB7F8948C91611103C010958123A1
:1006000001C0812B8C939FBF0F90DF91CF911F91E1
:100610000F910895CF92DF92EF92FF920F931F9365
:10062000CF93DF936C01EB017A01E60EF71E00E039
:1006300010E00BC06991D601ED91FC910190F08121
:10064000E02DC6010995080F191FCE15DF0591F79A
:10065000C801DF91CF911F910F91FF90EF90DF9034
:10066000CF900895DB010D900020E9F7AD014150D6
:100670005109461B570BDC01ED91FC910280F3817F
:10068000E02D09940C943203DC01ED91FC91019072
:10069000F081E02D09940F931F93CF93DF93EC012A
:1006A0006DE00E9444038C016AE0CE010E94440385
:1006B0009C01200F311FC901DF91CF911F910F9134
:1006C00008950F931F93CF93DF93EC010E943203A1
:1006D0008C01CE010E944B039801280F391FC901DC
:1006E000DF91CF911F910F9108955F926F927F924A
:1006F0008F929F92AF92BF92CF92DF92EF92FF9232
:100700000F931F93CF93DF93CDB7DEB7A1970FB6AB
:10071000F894DEBF0FBECDBF3C016A017B01522EB3
:1007200019A281E0821710F08AE0582E8E010F5D29
:100730001F4F852C912CA12CB12CC701B601A5010E
:1007400094010E9450068C2D529E80191124015054
:1007500011098A3010F4805D01C0895CF801808342
:1007600069017A01C114D104E104F10431F7B8013F
:10077000C3010E943203A1960FB6F894DEBF0FBEEC
:10078000CDBFDF91CF911F910F91FF90EF90DF9040
:10079000CF90BF90AF909F908F907F906F905F9021
:1007A0000895CF92DF92EF92FF920F931F93CF9312
:1007B000DF93EC016A017B012115310579F4E881B1
:1007C000F9810190F081E02D642FDF91CF911F918D
:1007D0000F91FF90EF90DF90CF9009942A30310570
:1007E00019F477FD0EC02AE0B701A601CE01DF9112
:1007F000CF911F910F91FF90EF90DF90CF900C94CD
:1008000075036DE20E9444038C0144275527BA0109
:100810004C195D096E097F092AE0CE010E9475031B
:100820009C01200F311FC901DF91CF911F910F91C2
:10083000FF90EF90DF90CF9008959A01AB0166276B
:1008400057FD6095762F0C94D1030F931F93CF9390
:10085000DF93EC019A01AB01662757FD6095762F77
:100860000E94D1038C01CE010E944B039801280FF6
:10087000391FC901DF91CF911F910F9108950E94F7
:100880004F020E941E01CCE1D5E00E948D0120970D
:10089000E1F30E941C05F9CFFC0184859585FC01DC
:1008A000E05CFF4F20813181FC01EE5BFF4F8081D6
:1008B0009181281B390B2F733327C9010895FC013F
:1008C00084859585FC01E05CFF4F40815181FC01EE
:1008D000EE5BFF4F208131814217530741F00190B9
:1008E000F081E02DE80FF91F208130E002C02FEFEA
:1008F0003FEFC9010895FC0184859585FC01E05C0A
:10090000FF4F40815181FC01EE5BFF4F208131811F
:100910004217530771F0A081B181A80FB91F2C9124
:100920008081918101968F7399279183808330E034
:1009300002C02FEF3FEFC9010895FC01868597851E
:10094000FC01E05CFF4FDC01AE5BBF4F4081518199
:100950002D913C91119742175307C1F708951F93AA
:10096000CF93DF93FC01162F26853785E901C05C04
:10097000DF4F88819981019660E470E00E943C0617
:10098000D901AE5BBF4F4D915C91119784179507CC
:10099000D1F3A881B981A20FB31F1C93A685B78597
:1009A000A05CBF4F11969C938E93A689B7892C911A
:1009B00081E090E0058C02C0880F991F0A94E2F74D
:1009C000282B2C9381E090E0DF91CF911F91089527
:1009D00008951F920F920FB60F9211242F933F93F9
:1009E0004F938F939F93EF93FF934091C600809115
:1009F0005A0290915B0201968F73992720915C02B5
:100A000030915D028217930759F0E0915A02F091FC
:100A10005B02E65EFD4F408390935B0280935A0237
:100A2000FF91EF919F918F914F913F912F910F9057
:100A30000FBE0F901F90189587EB91E00E944C0419
:100A4000892B11F00C94E80408951F920F920FB6B1
:100A50000F9211242F933F935F936F937F938F9304
:100A60009F93AF93BF93EF93FF9320911602309122
:100A7000170280911802909119022817390731F452
:100A80008091C1008F7D8093C10016C0E091180253
:100A9000F0911902EA52FE4F208180911802909144
:100AA0001902019660E470E00E943C0690931902DE
:100AB000809318022093C600FF91EF91BF91AF91F0
:100AC0009F918F917F916F915F913F912F910F90A7
:100AD0000FBE0F901F901895CF92DF92EF92FF926A
:100AE000CF93DF93EC016A017B01411581EE58073A
:100AF00061057105F9F0EC89FD8981E090E00E8CCB
:100B000002C0880F991F0A94E2F7808360E079E0C1
:100B10008DE390E0A70196010E9450062150310913
:100B2000410951095695479537952795211580E13B
:100B3000380798F0EC89FD89108260E874E88EE14E
:100B400090E0A70196010E94500621503109410909
:100B500051095695479537952795E889F989308346
:100B6000EA89FB892083EE89FF89408181E090E05A
:100B70009C010A8C02C0220F331F0A94E2F7422B19
:100B80004083EE89FF8940819C010B8C02C0220FBB
:100B9000331F0A94E2F7422B4083EE89FF8940819C
:100BA0009C010C8C02C0220F331F0A94E2F7422BE7
:100BB0004083EE89FF8920810D8C02C0880F991F28
:100BC0000A94E2F7809582238083DF91CF91FF9092
:100BD000EF90DF90CF9008951092BA011092B90172
:100BE00088EE93E0A0E0B0E08093BB019093BC015D
:100BF000A093BD01B093BE0180EA91E09093B8014B
:100C00008093B7018AE192E09093C4018093C3017D
:100C100086ED91E09093C6018093C50185EC90E04C
:100C20009093C8018093C70184EC90E09093CA012F
:100C30008093C90180EC90E09093CC018093CB012C
:100C400081EC90E09093CE018093CD0186EC90E012
:100C50009093D0018093CF0184E08093D10183E011
:100C60008093D20187E08093D30185E08093D40103
:100C700081E08093D501089597FB072E16F4009428
:100C800007D077FD09D00E94720607FC05D03EF41C
:100C9000909581959F4F0895709561957F4F089528
:100CA000A1E21A2EAA1BBB1BFD010DC0AA1FBB1F70
:100CB000EE1FFF1FA217B307E407F50720F0A21BE2
:100CC000B30BE40BF50B661F771F881F991F1A944F
:100CD00069F760957095809590959B01AC01BD0179
:100CE000CF010895AA1BBB1B51E107C0AA1FBB1F60
:100CF000A617B70710F0A61BB70B881F991F5A95A8
:100D0000A9F780959095BC01CD010895EE0FFF1FC6
:0C0D10000590F491E02D0994F894FFCFB9
:100D1C000D0096002C012C01B400B400B4003C0072
:100D2C0056616C76653A2009000941726475696EEA
:100D3C006F2050696E3A2009000954696D6520696D
:100D4C006E205365636F6E64733A20090046696CBC
:100D5C006C696E672074616E6B0054616E6B2066FB
:100D6C00696C6C696E672073746F707065642E00AB
:100D7C000954696D6520696E207365636F6E6473C9
:100D8C003A2009005374617274696E6720696E2091
:100D9C0033307365630053746172746564000500CD
:100DAC0006000700080009000A000B000000000004
:0C0DBC00AF040A034C047B045F049D0498
:00000001FF
