:100000000C945D000C9485000C9485000C94850084
:100010000C9485000C9485000C9485000C9485004C
:100020000C9485000C9485000C9485000C9485003C
:100030000C9485000C9485000C9485000C9485002C
:100040000C9488010C9485000C94D1040C940D053B
:100050000C9485000C9485000C9485000C9485000C
:100060000C9485000C94850000000007000201003C
:100070000003040600000000000000000102040864
:100080001020408001020408102001020408102002
:10009000040404040404040402020202020203032E
:1000A0000303030300000000250028002B000000CC
:1000B0000000240027002A00C80511241FBECFEF2E
:1000C000D8E0DEBFCDBF11E0A0E0B1E0EAE9FCE09E
:1000D00002C005900D92AC35B107D9F712E0ACE53E
:1000E000B1E001C01D92AF30B107E1F710E0CAEBFB
:1000F000D0E004C02297FE010E943F06C83BD10712
:10010000C9F70E942B040C944B060C9400001F931B
:10011000CF93DF9340E855E260E070E087E691E03E
:100120000E94480510925D0110925C0116C0EE0F0E
:10013000FF1FE35CFE4F61E080810E94870261E067
:10014000809100010E94870280915C0190915D0185
:10015000019690935D0180935C01E0915C01F091C8
:100160005D01E730F1051CF361E0809100010E9420
:10017000BF0268E97AE380E090E00E94FC0160E061
:10018000809100010E94BF02C0E0D0E0BE018EE07D
:1001900092E00E941806182F4AE050E0BE0187E660
:1001A00091E00E94090467E171E087E691E00E9416
:1001B0002E034AE050E0612F87E691E00E94B603EB
:1001C00087E691E00E9437032196CD33D105F1F601
:1001D000DF91CF911F9108950F931F93CF93DF93DA
:1001E000182F092FEB0160E171E087E691E00E9492
:1001F0002E0320915C0130915D01B9016F5F7F4F4B
:100200004AE050E087E691E00E94090469E171E06C
:1002100087E691E00E942E034AE050E0612F702FA4
:1002200087E691E00E94090469E271E087E691E0C7
:100230000E942E034AE050E0BE0187E691E00E9452
:10024000110461E0812F0E94BF0228EE33E0C29FBB
:10025000B001C39F700DD29F700D1124882777FDC8
:100260008095982F0E94FC0160E0812F0E94BF02C0
:10027000C0E0D1E061E088810E94BF0260E67AEED2
:1002800080E090E00E94FC0160E08881DF91CF91E6
:100290001F910F910C94BF0283B7817F846083BF4D
:1002A00083B7816083BFEAE7F0E080818F77808346
:1002B0008FEF8093640083B7816083BF889583B795
:1002C0008E7F83BF089510925D0110925C0117C06C
:1002D000880F991FFC01EE5FFE4F60817181FC0168
:1002E000E35CFE4F808191810E94EC0080915C0173
:1002F00090915D01019690935D0180935C018091E6
:100300005C0190915D018730910514F30C944C01D0
:100310001F920F920FB60F9211242F933F938F933A
:100320009F93AF93BF9380915E0190915F01A091E5
:100330006001B091610130916601232F2D5F2D374F
:1003400020F40196A11DB11D05C0232F2A57029646
:10035000A11DB11D2093660180935E0190935F0102
:10036000A0936001B093610180916201909163015B
:10037000A0916401B09165010196A11DB11D80930A
:10038000620190936301A0936401B0936501BF91F2
:10039000AF919F918F913F912F910F900FBE0F9032
:1003A0001F9018950F931F939FB7F89400916201C7
:1003B00010916301209164013091650186B5A89B7D
:1003C00006C08F3F21F00F5F1F4F2F4F3F4F9FBF42
:1003D000322F212F102F0027080F111D211D311D35
:1003E00042E0000F111F221F331F4A95D1F7B801B9
:1003F000C9011F910F910895CF92DF92EF92FF9262
:10040000CF93DF936B017C010E94D201EB010EC000
:100410000E94D2016C1B7D0B683E734038F081E076
:10042000C81AD108E108F108C851DC4FC114D10441
:10043000E104F10469F7DF91CF91FF90EF90DF9035
:10044000CF900895789484B5826084BD84B581602E
:1004500084BD85B5826085BD85B5816085BDEEE6CC
:10046000F0E0808181608083E1E8F0E010828081AB
:1004700082608083808181608083E0E8F0E0808119
:1004800081608083E1EBF0E0808184608083E0EB39
:10049000F0E0808181608083EAE7F0E08081846021
:1004A000808380818260808380818160808380817D
:1004B000806880831092C1000895833069F028F429
:1004C0008130A1F0823011F514C08630B1F0873050
:1004D000C1F08430D9F404C0809180008F7703C0CC
:1004E000809180008F7D80938000089584B58F7700
:1004F00002C084B58F7D84BD08958091B0008F7750
:1005000003C08091B0008F7D8093B0000895CF9399
:10051000DF9390E0FC01E458FF4F4491FC01E05769
:10052000FF4F8491882341F190E0880F991FFC01CF
:10053000E255FF4F25913491D9018C559F4FFC0115
:1005400085919491C82FD92F9FB7F8948C91611100
:1005500006C0409584238C938881842308C0623030
:1005600041F4242F209582238C938881842B8883C7
:1005700002C0842B8C939FBFDF91CF9108950F937E
:100580001F93CF93DF931F92CDB7DEB7282F30E0B4
:10059000F901E859FF4F8491F901E458FF4F149194
:1005A000F901E057FF4F04910023D1F0882321F097
:1005B00069830E945D026981E02FF0E0EE0FFF1F6A
:1005C000EC55FF4F85919491DC019FB7F8948C9185
:1005D000611103C01095812301C0812B8C939FBFB3
:1005E0000F90DF91CF911F910F910895CF92DF92DD
:1005F000EF92FF920F931F93CF93DF936C01EB0168
:100600007A01E60EF71E00E010E00BC06991D601FA
:10061000ED91FC910190F081E02DC6010995080F44
:10062000191FCE15DF0591F7C801DF91CF911F91FA
:100630000F91FF90EF90DF90CF900895DB010D9028
:100640000020E9F7AD0141505109461B570BDC0171
:10065000ED91FC910280F381E02D09940C941E032E
:10066000DC01ED91FC910190F081E02D09940F9354
:100670001F93CF93DF93EC016DE00E9430038C0158
:100680006AE0CE010E9430039C01200F311FC90196
:10069000DF91CF911F910F9108955F926F927F929A
:1006A0008F929F92AF92BF92CF92DF92EF92FF9282
:1006B0000F931F93CF93DF93CDB7DEB7A1970FB6FC
:1006C000F894DEBF0FBECDBF3C016A017B01522E04
:1006D00019A281E0821710F08AE0582E8E010F5D7A
:1006E0001F4F852C912CA12CB12CC701B601A5015F
:1006F00094010E941B068C2D529E801911240150DA
:1007000011098A3010F4805D01C0895CF801808392
:1007100069017A01C114D104E104F10431F7B8018F
:10072000C3010E941E03A1960FB6F894DEBF0FBE50
:10073000CDBFDF91CF911F910F91FF90EF90DF9090
:10074000CF90BF90AF909F908F907F906F905F9071
:1007500008952115310541F4DC01ED91FC910190E2
:10076000F081E02D642F09940C944D039A01462FDB
:1007700050E060E070E00C94A903CF92DF92EF921A
:10078000FF920F931F93CF93DF93EC016A017B01DC
:100790002115310579F4E881F9810190F081E02D8E
:1007A000642FDF91CF911F910F91FF90EF90DF9019
:1007B000CF9009942A30310519F477FD0EC02AE054
:1007C000B701A601CE01DF91CF911F910F91FF904C
:1007D000EF90DF90CF900C944D036DE20E943003B8
:1007E0008C0144275527BA014C195D096E097F0910
:1007F0002AE0CE010E944D039C01200F311FC90148
:10080000DF91CF911F910F91FF90EF90DF90CF90EC
:1008100008959A01AB01662757FD6095762F0C94D9
:10082000BD030F931F93CF93DF93EC019A01AB01AC
:10083000662757FD6095762F0E94BD038C01CE017F
:100840000E9437039801280F391FC901DF91CF910A
:100850001F910F9108950E9422020E948700C4E018
:10086000D5E00E9463012097E1F30E940405F9CFCF
:10087000FC0184859585FC01E05CFF4F208131817E
:10088000FC01EE5BFF4F80819181281B390B2F7398
:100890003327C9010895FC0184859585FC01E05C3E
:1008A000FF4F40815181FC01EE5BFF4F2081318180
:1008B0004217530741F00190F081E02DE80FF91F36
:1008C000208130E002C02FEF3FEFC9010895FC0105
:1008D00084859585FC01E05CFF4F40815181FC01DE
:1008E000EE5BFF4F208131814217530771F0A081E9
:1008F000B181A80FB91F2C918081918101968F73CE
:1009000099279183808330E002C02FEF3FEFC90128
:100910000895FC0186859785FC01E05CFF4FDC01B2
:10092000AE5BBF4F408151812D913C911197421791
:100930005307C1F70895CF93DF93FC0126853785D0
:10094000D901A05CBF4F8D919C91119701968F7337
:100950009927E901CE5BDF4F4881598184179507BC
:10096000D9F30D90BC91A02DA20FB31F6C93A68557
:10097000B785A05CBF4F11969C938E93A689B789CB
:100980002C9181E090E0058C02C0880F991F0A9499
:10099000E2F7282B2C9381E090E0DF91CF9108952E
:1009A00008951F920F920FB60F9211242F933F9329
:1009B0004F938F939F93EF93FF934091C600809145
:1009C0000A0290910B0201968F73992720910C02D5
:1009D00030910D028217930759F0E0910A02F091CD
:1009E0000B02E653FE4F408390930B0280930A0262
:1009F000FF91EF919F918F914F913F912F910F9088
:100A00000FBE0F901F90189587E691E00E94380462
:100A1000892B11F00C94D00408951F920F920FB6F9
:100A20000F9211242F933F938F939F93EF93FF93F4
:100A30002091C6013091C7018091C8019091C901F0
:100A40002817390731F48091C1008F7D8093C10050
:100A500014C0E091C801F091C901EA57FE4F20810E
:100A60008091C8019091C90101968F739927909345
:100A7000C9018093C8012093C600FF91EF919F9117
:100A80008F913F912F910F900FBE0F901F9018954F
:100A9000CF92DF92EF92FF92CF93DF93EC016A0146
:100AA0007B01411581EE580761057105F9F0EC896C
:100AB000FD8981E090E00E8C02C0880F991F0A9496
:100AC000E2F7808360E079E08DE390E0A701960192
:100AD0000E941B062150310941095109569547953D
:100AE00037952795211580E1380798F0EC89FD8925
:100AF000108260E874E88EE190E0A70196010E9400
:100B00001B062150310941095109569547953795E2
:100B10002795E889F9893083EA89FB892083EE8962
:100B2000FF89408181E090E09C010A8C02C0220F85
:100B3000331F0A94E2F7422B4083EE89FF894081FC
:100B40009C010B8C02C0220F331F0A94E2F7422B48
:100B50004083EE89FF8940819C010C8C02C0220FEA
:100B6000331F0A94E2F7422B4083EE89FF892081EC
:100B70000D8C02C0880F991F0A94E2F7809582239A
:100B80008083DF91CF91FF90EF90DF90CF90089519
:100B900010926A011092690188EE93E0A0E0B0E043
:100BA00080936B0190936C01A0936D01B0936E01E3
:100BB0008FE491E090936801809367018AEC91E063
:100BC000909374018093730186E891E0909376018D
:100BD0008093750185EC90E0909378018093770184
:100BE00084EC90E090937A018093790180EC90E01E
:100BF00090937C0180937B0181EC90E090937E0147
:100C000080937D0186EC90E09093800180937F013A
:100C100084E08093810183E08093820187E0809368
:100C2000830185E08093840181E0809385010895AC
:100C3000CB010C944306A1E21A2EAA1BBB1BFD019B
:100C40000DC0AA1FBB1FEE1FFF1FA217B307E407AB
:100C5000F50720F0A21BB30BE40BF50B661F771F03
:100C6000881F991F1A9469F76095709580959095E3
:100C70009B01AC01BD01CF010895EE0FFF1F059050
:100C8000F491E02D0994F999FECF92BD81BDF89AB7
:0A0C9000992780B50895F894FFCF6E
:100C9A000D0001005A0096007800780078003C00A8
:100CAA0056616C76653A2009000941726475696E6D
:100CBA006F2050696E3A2009000954696D652069F0
:100CCA006E206D696E757465733A20090005000619
:100CDA00000700080009000A000B00000000009B42
:0C0CEA0004F602380467044B048904007F
:00000001FF
