:100000000C946E000C9496000C9496000C94960040
:100010000C9496000C9496000C9496000C94960008
:100020000C9496000C9496000C9496000C949600F8
:100030000C9496000C9496000C9496000C949600E8
:100040000C94E1280C9496000C94620E0C949E0E75
:100050000C9496000C9496000C9496000C949600C8
:100060000C9466110C949600000000070002010039
:100070000003040600000000000000000102040864
:100080001020408001020408102001020408102002
:10009000040404040404040402020202020203032E
:1000A00003030303000000002300260029000000D2
:1000B0000000250028002B0000000000240027007D
:1000C0002A007C3C3E5E2B3D3F2F5B5D3B2C2A2271
:1000D0005C004309590F831057154D0911241FBEA9
:1000E000CFEFD8E0DEBFCDBF12E0A0E0B1E0EEE19F
:1000F000FAE502C005900D92A633B107D9F716E0D4
:10010000A6E3B2E001C01D92A932B107E1F710E009
:10011000CAEDD0E004C02297FE010E94662AC23DCB
:10012000D107C9F70E94B60D0C94022D0C94000063
:100130008F929F92AF92BF920F931F934B015C01DE
:1001400020E030E040E05FE40E942A0487FD0EC01A
:1001500020E030E040E05FE4C501B4010E944302CA
:100160000E9411058B019C01305806C0C501B401E5
:100170000E9411058B019C01B801C9011F910F91CB
:10018000BF90AF909F908F900895A0E0B0E0EBEC0F
:10019000F0E00C94312A3C01CB01EA01D3012C910F
:1001A000223008F43EC1FB013081323008F436C100
:1001B000243071F4343009F034C111962C918181CE
:1001C000281709F42EC1BCE06B2EB1E07B2E29C1AB
:1001D000343009F423C1323091F4223009F021C1C6
:1001E00028E0F301DA0101900D922A95E1F7DB0195
:1001F00011968C91F30191818923898311C1223059
:1002000009F40CC1D3011296ED91FC911397DB0117
:1002100012966D917C911397D30114960D911D91B7
:100220002D913C911797DC011496CD90DD90ED90C7
:10023000FC901797AF01461B570BDA0157FF04C01C
:10024000AA27BB27A41BB50BA032B1050CF065C0D3
:10025000141615067CF5B701A6010A2E04C0769582
:100260006795579547950A94D2F7812C912C5401A4
:10027000839404C0880C991CAA1CBB1CAA95D2F7B5
:10028000B1E08B1A9108A108B1088C209D20AE2006
:10029000BF20C12CD12C7601C39481149104A104F8
:1002A000B10419F4C12CD12C7601C42AD52AE62A2E
:1002B000F72A3EC0452BE1F1EA0FFB1FB901A80167
:1002C0000A2E04C076956795579547950A94D2F7FC
:1002D000812C912C5401839404C0880C991CAA1C75
:1002E000BB1CAA95D2F7A1E08A1A9108A108B1080F
:1002F00080229122A222B32201E010E020E030E02F
:1003000081149104A104B10419F400E010E09801F3
:10031000042B152B262B372B0BC06E177F0724F4CD
:10032000C12CD12C760104C0FB0100E010E0980143
:10033000D30111964C91DC0111968C91481709F468
:1003400042C0442349F0D701C601801B910BA20B88
:10035000B30B8C019D0104C00C191D092E093F0926
:1003600037FD04C01982FB83EA830BC081E08983D7
:10037000FB83EA8330952095109501951F4F2F4FF1
:100380003F4F0C831D832E833F830DC0880F991F21
:10039000AA1FBB1F8C839D83AE83BF838A819B81F1
:1003A00001979B838A838C819D81AE81BF818C0163
:1003B0009D0101501109210931090F3F1F4F2F4F96
:1003C0003F4320F30BC04983FB83EA830C0D1D1DC3
:1003D0002E1D3F1D0C831D832E833F8383E0888366
:1003E0000C811D812E813F8137FF1AC0D901C801C0
:1003F00081709927AA27BB273695279517950795CA
:10040000802B912BA22BB32B8C839D83AE83BF8338
:100410008A819B8101969B838A8302C03C0101C033
:100420003E01C301CDB7DEB7EEE00C944D2AA0E249
:10043000B0E0EDE1F2E00C943D2A6D8F7E8F8F8F5E
:1004400098A3298F3A8F4B8F5C8FBE016F5E7F4FD1
:10045000CE014D960E949706BE01675F7F4FCE0189
:1004600049960E949706AE014F5F5F4FBE01675FDE
:100470007F4FCE0141960E94C5000E94D605A096EE
:10048000E2E00C94592AA0E2B0E0E9E4F2E00C9436
:100490003D2A6D8F7E8F8F8F98A3298F3A8F4B8F38
:1004A0005C8FBE016F5E7F4FCE014D960E94970616
:1004B000BE01675F7F4FCE0149960E9497068A85ED
:1004C00091E089278A87AE014F5F5F4FBE01675F6A
:1004D0007F4FCE0141960E94C5000E94D605A0968E
:1004E000E2E00C94592AA0E2B0E0E9E7F2E00C94D3
:1004F0002F2A6D8F7E8F8F8F98A3298F3A8F4B8FE6
:100500005C8FBE016F5E7F4FCE014D960E949706B5
:10051000BE01675F7F4FCE0149960E949706998979
:10052000923008F412C08985823008F41AC09430E1
:1005300021F4823009F4B4C008C0843021F4923030
:1005400009F4AEC00EC0923051F481E02A899A8538
:10055000291301C080E08A8BCE014196A3C082306E
:1005600051F481E02A899A85291301C080E08A87A5
:10057000CE01099697C08D889E88AF88B88C0D856E
:100580001E852F853889E0E2F0E080E090E0DC0114
:10059000C12CD12C760140E050E0BA0180FE18C099
:1005A000400F511F621F731F8C0D9D1DAE1DBF1D7F
:1005B000412C512C320143944017510762077307B5
:1005C00018F0412C512C3201840D951DA61DB71D2C
:1005D000CC0CDD1CEE1CFF1C37FF02C06894C0F879
:1005E000000F111F221F331FB694A794979487946E
:1005F0003197A1F62B893C89EB85FC852E0F3F1F97
:100600002E5F3F4F3C832B8321E0EA893A85E31339
:1006100001C020E02A83EB81FC810CC080FF05C073
:1006200076956795579547957068B695A795979570
:1006300087953196B7FDF2CF9F010CC0880F991FA7
:10064000AA1FBB1F77FD8160440F551F661F771FD0
:10065000215031090097A105E0E4BE0778F32B8310
:100660003C838C019D010F7711272227332700340B
:1006700011052105310559F487FD09C0452B462B8D
:10068000472B29F0805C9F4FAF4FBF4F80788D8301
:100690009E83AF83B88783E08983CE01019602C031
:1006A0008CE091E00E94D605A096E0E10C944B2AE4
:1006B000A8E1B0E0EEE5F3E00C94372A6D8B7E8B79
:1006C0008F8B988F298B3A8B4B8B5C8BBE01675F2E
:1006D0007F4FCE0145960E949706BE016F5F7F4F08
:1006E000CE0141960E9497069985923008F475C014
:1006F0008981823008F474C02A853A8123272A87A9
:10070000943011F0923019F4981367C06CC08430A3
:1007100039F41D861E861F86188A1C861B8604C017
:10072000823029F484E08987CE0109965EC08B85EA
:100730009C852B813C81821B930B9C878B874D85ED
:100740005E856F857889CD80DE80EF80F8844C15DA
:100750005D056E057F0538F4440F551F661F771F32
:1007600001979C878B87EFE1F0E000E010E020E04C
:1007700030E480E090E0DC014C155D056E057F05FE
:1007800040F0802B912BA22BB32B4C195D096E09E5
:100790007F093695279517950795440F551F661FB6
:1007A000771F319749F78C019D010F771127222779
:1007B0003327003411052105310559F487FD09C09F
:1007C000452B462B472B29F0805C9F4FAF4FBF4FE7
:1007D00080788D879E87AF87B88BCE01099605C03C
:1007E000CE01019602C08CE091E00E94D605689689
:1007F000E8E00C94532AA8E1B0E0E1E0F4E00C94C6
:100800003D2A6D8B7E8B8F8B988F298B3A8B4B8BF0
:100810005C8BBE01675F7F4FCE0145960E949706B5
:10082000BE016F5F7F4FCE0141960E94970689857A
:10083000823058F08981823040F0BE016F5F7F4F77
:10084000CE0109960E94060701C08FEF6896E2E08C
:100850000C94592AA8E1B0E0E0E3F4E00C943D2ABE
:100860006D8B7E8B8F8B988F298B3A8B4B8B5C8B10
:10087000BE01675F7F4FCE0145960E949706BE017D
:100880006F5F7F4FCE0141960E9497068985823027
:1008900058F08981823040F0BE016F5F7F4FCE01FA
:1008A00009960E94060701C08FEF6896E2E00C945B
:1008B000592AA8E1B0E0EFE5F4E00C943D2A6D8BF5
:1008C0007E8B8F8B988F298B3A8B4B8B5C8BBE01E9
:1008D000675F7F4FCE0145960E949706BE016F5F0E
:1008E0007F4FCE0141960E9497068985823058F04D
:1008F0008981823040F0BE016F5F7F4FCE01099643
:100900000E94060701C081E06896E2E00C94592A33
:10091000A8E1B0E0EEE8F4E00C943D2A6D8B7E8B0C
:100920008F8B988F298B3A8B4B8B5C8BBE01675FCB
:100930007F4FCE0145960E949706BE016F5F7F4FA5
:10094000CE0141960E9497068985823040F081E071
:1009500090E02981223028F080E090E002C081E020
:1009600090E06896E2E00C94592AA8E0B0E0EBEB46
:10097000F4E00C943B2A23E029838B019C0100279F
:1009800037FD0395112722273327402F0A8361154E
:1009900071058105910519F482E0898335C02EE146
:1009A00030E03C832B83442371F061157105810590
:1009B00020E8920771F1002711279801061B170BF9
:1009C000280B390B02C08B019C01C901B8010E94A0
:1009D0006A2A0197181619062CF00D831E832F839F
:1009E000388712C0082E04C0000F111F221F331FAA
:1009F0000A94D2F70D831E832F8338872EE130E0CF
:100A0000281B390B3C832B83CE0101960E94D6050F
:100A100004C060E070E080E09FEC2896E4E00C9475
:100A2000572AACE0B0E0E7E1F5E00C943B2A698797
:100A30007A878B879C87BE016F5F7F4FCE010996B7
:100A40000E9497068981823091F1823080F1843052
:100A500041F48A81882331F100E010E020E030E8A1
:100A600029C02B813C8137FD22C02F3131058CF705
:100A70008EE190E0821B930B0D811E812F813885C2
:100A800004C036952795179507958A95D2F78A81E0
:100A9000882381F030952095109501951F4F2F4F99
:100AA0003F4F08C00FEF1FEF2FEF3FE703C000E0FD
:100AB00010E09801B801C9012C96E4E00C94572A83
:100AC000A8E0B0E0E6E6F5E00C94372A8B019C0143
:100AD0001A82611571058105910519F482E08983F7
:100AE0005DC083E089834EE150E05C834B83C901A4
:100AF000B8010E946A2A019797FF39C0EE27FF27A5
:100B0000E81BF90B41E050E060E070E00E2E04C0FD
:100B1000440F551F661F771F0A94D2F741505109A1
:100B2000610971094023512362237323C12CD12C05
:100B30007601C394452B462B472B19F4C12CD12C9D
:100B4000760104C03695279517950795EA95D2F753
:100B50000C291D292E293F290D831E832F833887B9
:100B60002EE130E0281B390B3C832B8317C0009704
:100B700029F40D831E832F83388710C0082E04C0EC
:100B8000000F111F221F331F0A94D2F70D831E83FB
:100B90002F833887481B590B5C834B83CE0101960A
:100BA0000E94D6052896E8E00C94532A0F931F93D1
:100BB000CF93FC014481558166817781C181808119
:100BC000823020F460618FEF90E0A3C0843009F49C
:100BD0009BC0823009F492C0411551056105710531
:100BE00009F48FC02281338122388FEF38070CF04F
:100BF00057C0E2E8FFEFE21BF30BEA31F10564F5C1
:100C00008A019B010E2E04C03695279517950795EE
:100C10000A94D2F781E090E0A0E0B0E004C0880F31
:100C2000991FAA1FBB1FEA95D2F70197A109B10925
:100C300084239523A623B72341E050E060E070E0D1
:100C4000892B8A2B8B2B19F440E050E0BA01402B02
:100C5000512B622B732B03C040E050E0BA01DB0143
:100C6000CA018F779927AA27BB2780349105A10550
:100C7000B10539F447FF09C0405C5F4F6F4F7F4FAC
:100C800004C0415C5F4F6F4F7F4F81E090E04115A2
:100C90005105610520E4720748F580E090E026C028
:100CA000203831058CF5DB01CA018F779927AA27F7
:100CB000BB2780349105A105B10539F447FF09C070
:100CC000405C5F4F6F4F7F4F04C0415C5F4F6F4F81
:100CD0007F4F77FD04C0C90181589F4F07C07695AB
:100CE000679557954795C90180589F4F97E076952E
:100CF0006795579547959A95D1F70BC080E090E09E
:100D000005C080E090E005C08FEF90E040E050E04B
:100D1000BA01982F9695C0FB97F9362F80FB37F9CB
:100D2000642F752F832FCF911F910F910895CF922C
:100D3000DF92EF92DC01FB01CC901196DC901197D1
:100D400012968C9112973FE7E32EE8226E2DA601B2
:100D500070E0982F991F9927991F13962C91822F35
:100D6000880F892B90E027FB222720F92183009709
:100D700029F5411551056105710511F482E027C07F
:100D800082E89FEF9383828327E0440F551F661FFD
:100D9000771F2A95D1F783E0808309C0440F551F40
:100DA000661F771F82819381019793838283411508
:100DB0005105610580E4780788F320C08F3F9105D5
:100DC00079F4411551056105710519F484E08083BA
:100DD00019C0E4FE03C081E0808310C010820EC001
:100DE0008F5791099383828383E0808387E0440F48
:100DF000551F661F771F8A95D1F77064448355830A
:100E000066837783EF90DF90CF900895CF93FC01B6
:100E1000DB019081923008F452C08C91823008F44A
:100E20004EC0943071F4843039F411962C9130E036
:100E30008181281B310948C08181882309F43FC082
:100E40003BC0843029F411968C91811138C034C094
:100E5000923019F48230B9F735C0823069F3C1811C
:100E600011968C911197C8131DC02281338112965F
:100E70008D919C911397821793070CF413C0281738
:100E800039070CF417C04481558166817781149627
:100E90008D919D910D90BC91A02D84179507A6076B
:100EA000B70718F4C11108C00AC0481759076A07E4
:100EB0007B0740F4C11103C02FEF3FEF05C021E0D5
:100EC00030E002C020E030E0C901CF9108950F93D7
:100ED0001F93CF93DF93CDB7DEB7A8970FB6F894E3
:100EE000DEBF0FBECDBF40E855E260E070E081E6B6
:100EF00092E00E94D90E88E093E00E9447100E9481
:100F0000B12680E692E00E94B326811106C064E11A
:100F100071E081E692E00E943C0C68E271E081E6BB
:100F200092E00E941D0C61E08AE00E947B096AE069
:100F300088EC93E00E94AE13811107C060E471E079
:100F400081E692E00E943C0C85C067E571E081E695
:100F500092E00E943C0C8DE0E9E9F1E0DE015C9654
:100F600001900D928A95E1F710E00AE0812F602F41
:100F70000E94EB29805D8AA3905D9BA3BE01645E05
:100F80007F4F88EC93E00E944C1581113CC023E117
:100F9000AE01445E5F4F68EC73E0CE0101960E94A3
:100FA000C7148B819C8190933B0280933A028D8180
:100FB0009E81AF81B88580933C0290933D02A093BF
:100FC0003E02B0933F0289859A85AB85BC858093AC
:100FD000400290934102A0934202B09343028DE0FD
:100FE000FE013D96A4E4B2E001900D928A95E1F7EE
:100FF0008A8D9B8D9093520280935102CE0101966F
:101000000E94571604C01F5F143609F0AFCF88E363
:1010100092E00E94BB16811106C06CE671E081E689
:1010200092E00E943C0C60E871E081E692E00E9450
:101030001D0CBE01645E7F4F81E692E00E943C0C75
:101040006DE871E081E692E00E943C0C83E592E05D
:101050000E947E27A8960FB6F894DEBF0FBECDBFC4
:10106000DF91CF911F910F9108953F924F925F9220
:101070006F927F928F929F92AF92BF92CF92DF92A8
:10108000EF92FF920F931F93CF93DF93CDB7DEB70D
:101090006A970FB6F894DEBF0FBECDBF80913602BF
:1010A00090913702892B31F466EA71E088E392E08F
:1010B0000E943C0C0E94DD262D8B3E8B4F8B588F5F
:1010C000698F7A8F86E0FE017596DE011F9601908A
:1010D0000D928A95E1F71B89E12EF12C8091060192
:1010E00090910701E816F90609F4B5C060E083E5C0
:1010F00092E00E9448284B015C016AEC71E0CE014D
:1011000008960E948F0A0C895A8849883888CF84AB
:10111000D12C80E3C81A88EFD80A6090360270900C
:101120003702BE01685F7F4FCE0101960E94C30A5D
:10113000B301CE0101960E948A0B68EC71E00E9417
:101140005C0BB6010E948A0B6BEC71E00E945C0B99
:10115000632D0E94790B6BEC71E00E945C0B642D97
:101160000E94790B68EC71E00E945C0B652D0E9477
:10117000790B6DEC71E00E945C0B612F0E94790B82
:101180006DEC71E00E945C0B602F0E94790B68ECA3
:1011900071E00E945C0BBC01CE0108960E94AC0A73
:1011A000CE0101960E94130ABE01685F7F4F88E35B
:1011B00092E00E94E60BBE01685F7F4F81E692E0FD
:1011C0000E94E60BA5019401C501B4010E948804A8
:1011D000882339F06FEC71E081E692E00E943C0CCC
:1011E00010C022E030E0B501A40188E392E00E9443
:1011F000A00D22E030E0B501A40181E692E00E945A
:10120000A20D20E030E040EF51E4C501B4010E949E
:10121000FB0318163CF467EE71E088E392E00E944D
:101220003C0C04C088E392E00E94260C88E392E024
:101230000E9490158091360290913702019690930A
:10124000370280933602F0920701E0920601CE0148
:1012500008960E94130A6A960FB6F894DEBF0FBE76
:10126000CDBFDF91CF911F910F91FF90EF90DF9055
:10127000CF90BF90AF909F908F907F906F905F9036
:101280004F903F90089546E168E083E592E00E9428
:10129000782788E392E00C94441688E392E00C945B
:1012A0005716833069F028F48130A1F0823011F5AF
:1012B00014C08630B1F08730C1F08430D9F404C056
:1012C000809180008F7703C0809180008F7D809314
:1012D0008000089584B58F7702C084B58F7D84BD6A
:1012E00008958091B0008F7703C08091B0008F7D0A
:1012F0008093B0000895CF93DF9390E0FC01E45811
:10130000FF4F4491FC01E057FF4F8491882341F146
:1013100090E0880F991FFC01E854FF4F259134910C
:10132000D90182559F4FFC0185919491C82FD92FE7
:101330009FB7F8948C91611106C0409584238C93DB
:101340008881842308C0623041F4242F20958223B1
:101350008C938881842B888302C0842B8C939FBFBD
:10136000DF91CF9108950F931F93CF93DF931F9237
:10137000CDB7DEB7282F30E0F901E859FF4F84914F
:10138000F901E458FF4F1491F901E057FF4F049120
:101390000023D1F0882321F069830E9451096981DB
:1013A000E02FF0E0EE0FFF1FE255FF4F8591949183
:1013B000DC019FB7F8948C91611103C010958123D3
:1013C00001C0812B8C939FBF0F90DF91CF911F9114
:1013D0000F910895CF93DF93282F30E0F901E8595A
:1013E000FF4F8491F901E458FF4FD491F901E05780
:1013F000FF4FC491CC2389F081110E945109EC2F39
:10140000F0E0EE0FFF1FEC55FF4F85919491DC014A
:101410008C918D2321E030E011F420E030E0C9010F
:10142000DF91CF910895FC01808191810C94202B54
:10143000EF92FF927C01FC0180819181009711F075
:101440000E94202BF70111821082158214821382D0
:101450001282FF90EF900895CF92DF92EF92FF9269
:101460007C016B016F5F7F4FFC01808191810E9445
:10147000BC2B009739F0F70191838083D382C2821D
:1014800081E001C080E0FF90EF90DF90CF90089561
:10149000EF92FF927C01DC018D919C911197892B39
:1014A00041F012968D919C9113978617970708F03B
:1014B0000EC0C7010E942C0A882359F0F7018481CD
:1014C0009581892B21F40190F081E02D108281E03B
:1014D00001C080E0FF90EF900895AF92BF92CF924D
:1014E000DF92EF92FF927C015B016A01BA010E94D8
:1014F000480A811104C0C7010E94180A08C0F701F8
:10150000D582C482B501808191810E94A52CC7013A
:10151000FF90EF90DF90CF90BF90AF900895DC01E7
:1015200011961C921E9213961C921E92129715965B
:101530001C921E92149716961C926115710559F013
:10154000DB010D900020E9F7AD0141505109461B28
:10155000570B0C946D0A0895EF92FF927C01FB01EA
:101560008617970761F0608171816115710529F017
:10157000448155810E946D0A02C00E94180AC70169
:10158000FF90EF900895FC01118210821382128265
:101590001582148216820C94AC0AAF92BF92CF923D
:1015A000DF92EF92FF927C015B01FC01C480D58049
:1015B0006115710511F480E018C041155105A1F0C5
:1015C000C40ED51EB6010E94480A8823A1F3F70174
:1015D0002081318184819581B501820F931F0E9402
:1015E000A52CF701D582C48281E0FF90EF90DF90B7
:1015F000CF90BF90AF900895CF92DF92EF92FF927D
:10160000CF93DF9300D000D0CDB7DEB76C01862F2B
:101610004AE050E0EE24E394F12CEC0EFD1EB701FD
:1016200090E00E94BB2CF70101900020E9F7AF0188
:10163000415051094E195F09B701C6010E94CD0AF8
:101640000F900F900F900F90DF91CF91FF90EF9040
:10165000DF90CF900895CF92DF92EF92FF92CF93D9
:10166000DF9300D000D000D0CDB7DEB76C01CB0146
:101670004AE050E0EE24E394F12CEC0EFD1EB7019D
:101680000E94DC2CF70101900020E9F7AF014150E6
:1016900051094E195F09B701C6010E94CD0A26966D
:1016A0000FB6F894DEBF0FBECDBFDF91CF91FF9094
:1016B000EF90DF90CF900895CF93DF93D82FC92F6D
:1016C0006115710569F0DB010D900020E9F7AD01AE
:1016D00041505109461B570B0E94CD0A811104C08D
:1016E0008D2F9C2F0E94180A8D2F9C2FDF91CF9158
:1016F0000895CF93DF93D82FC92F0E94FC0A811140
:1017000004C08D2F9C2F0E94180A8D2F9C2FDF91D3
:10171000CF910895CF93DF93D82FC92F0E942B0B21
:10172000811104C08D2F9C2F0E94180A8D2F9C2F91
:10173000DF91CF910895FC012481358162177307F1
:1017400048F480819181009729F0FC01E60FF71F92
:101750008081089580E008958F929F92AF92BF920A
:10176000CF92DF92EF92FF924C017B015A01A60EBD
:10177000B71EC12CD12C0DC0D7016D917D01D401B4
:10178000ED91FC910190F081E02DC4010995C80E06
:10179000D91EEA14FB0481F7C601FF90EF90DF9099
:1017A000CF90BF90AF909F908F900895DB010D90E8
:1017B0000020E9F7AD0141505109461B570BDC01F0
:1017C000ED91FC910280F381E02D09946F927F925C
:1017D0008F929F92AF92BF92CF92DF92EF92FF9241
:1017E0005C014B01C12CD12CE12CF12C12C0D50194
:1017F000ED91FC9160807180B601C4010E949B0B49
:10180000682FC501F3010995E80EF91EFFEFCF1A05
:10181000DF0AD40114968D919C911597C816D906AC
:1018200030F3C701FF90EF90DF90CF90BF90AF9063
:101830009F908F907F906F9008950C94D60BDC0151
:10184000ED91FC910190F081E02D0994CF92DF920F
:10185000EF92FF927C016DE00E941F0C6C016AE028
:10186000C7010E941F0C9C012C0D3D1DC901FF905A
:10187000EF90DF90CF900895CF92DF92EF92FF929A
:101880007C010E94D60B6C01C7010E94260C9601B8
:10189000280F391FC901FF90EF90DF90CF90089576
:1018A0005F926F927F928F929F92AF92BF92CF92F0
:1018B000DF92EF92FF920F931F93CF93DF93CDB7F9
:1018C000DEB7A1970FB6F894DEBF0FBECDBF3C01C7
:1018D0006A017B01522E19A281E0821710F08AE082
:1018E000582E8E010F5D1F4F852C912CA12CB12CF1
:1018F000C701B601A50194010E940B2A8C2D529EAE
:1019000080191124015011098A3010F4805D01C042
:10191000895CF801808369017A01C114D104E10472
:10192000F10431F7B801C3010E94D60BA1960FB69E
:10193000F894DEBF0FBECDBFDF91CF911F910F9105
:10194000FF90EF90DF90CF90BF90AF909F908F90DF
:101950007F906F905F9008958F929F92AF92BF9209
:10196000CF92DF92EF92FF927C014A015B01211539
:10197000310581F4DC01ED91FC910190F081E02DC5
:10198000642FFF90EF90DF90CF90BF90AF909F902B
:101990008F9009942A30310519F477FD0EC02AE0A2
:1019A000B501A401C701FF90EF90DF90CF90BF90E9
:1019B000AF909F908F900C94500C6DE20E941F0C82
:1019C0006C0144275527BA01481959096A097B094E
:1019D0002AE0C7010E94500C9C012C0D3D1DC9013D
:1019E000FF90EF90DF90CF90BF90AF909F908F903F
:1019F00008954F925F926F927F928F929F92AF92D3
:101A0000BF92CF92DF92EF92FF92CF93DF932C01A0
:101A10004A015B01C22F20E030E0A901C501B401F9
:101A20000E94590487FF0AC06DE2C2010E941F0C88
:101A30003C01B7FAB094B7F8B09402C0612C712C95
:101A4000D0E060E070E080E09FE307C020E030E09D
:101A500040E251E40E945803DF5FDC13F7CF262FEA
:101A6000372F482F592FC501B4010E9417024B018F
:101A70005C01792D9B2D0E9498006B017C010E94D6
:101A800060059B01AC01682D792D8A2D9B2D0E944C
:101A90004302D62FB72EA82E992E2AE0A601B70111
:101AA000C2010E94500C680E791ECC23B9F16EE37E
:101AB00071E0C2010E94D60B680E791E2FC020E093
:101AC00030E040E251E46D2F7B2D8A2D992D0E944C
:101AD00073026B017C017D2D9F2D0E9411054B012E
:101AE000AA2497FCA094BA2C2AE030E0B501A40106
:101AF000C2010E94AC0C680E791EC501B4010E949F
:101B0000B5049B01AC016C2D7D2D8E2D9F2D0E9467
:101B10004302D62FB72EA82E992EC150C111CFCF78
:101B2000C301DF91CF91FF90EF90DF90CF90BF90F6
:101B3000AF909F908F907F906F905F904F9008959F
:101B40000C94F90CCF92DF92EF92FF927C010E94ED
:101B5000F90C6C01C7010E94260C9601280F391F51
:101B6000C901FF90EF90DF90CF9008950E949929CE
:101B70000E94670785E9E82E8EE0F82E0E9435085E
:101B8000E114F104D9F30E94950EF8CFFC0184858D
:101B90009585FC01E05CFF4F20813181FC01EE5B0B
:101BA000FF4F80819181281B390B2F733327C90187
:101BB0000895FC0184859585FC01E05CFF4F408120
:101BC0005181FC01EE5BFF4F2081318142175307A9
:101BD00041F00190F081E02DE80FF91F208130E005
:101BE00002C02FEF3FEFC9010895FC018485958560
:101BF000FC01E05CFF4F40815181FC01EE5BFF4F37
:101C0000208131814217530781F0A081B181A80F53
:101C1000B91F8C91208131812F5F3F4F2F73332764
:101C200031832083282F30E002C02FEF3FEFC9011E
:101C30000895FC0186859785FC01E05CFF4FDC017F
:101C4000AE5BBF4F408151812D913C91119742175E
:101C50005307C1F70895CF93DF93FC0186859785DD
:101C6000DC01A05CBF4F2D913C9111972F5F3F4F3E
:101C70002F733327EC01CE5BDF4F48815981241746
:101C80003507D9F30D90BC91A02DA80FB91F6C9307
:101C9000A685B785A05CBF4F11963C932E93A6896D
:101CA000B7892C9181E090E0058C02C0880F991FC4
:101CB0000A94E2F7282B2C9381E090E0DF91CF91FA
:101CC000089508951F920F920FB60F9211242F932B
:101CD0003F934F938F939F93EF93FF934091C60051
:101CE000809104039091050301968F7399272091A9
:101CF0000603309107038217930759F0E09104031C
:101D0000F0910503EC53FD4F4083909305038093BE
:101D10000403FF91EF919F918F914F913F912F91EC
:101D20000F900FBE0F901F90189581E692E00E94D1
:101D3000C60D892B11F00C94610E08951F920F921D
:101D40000FB60F9211242F933F938F939F93EF938E
:101D5000FF932091C0023091C1028091C202909104
:101D6000C3022817390731F48091C1008F7D809319
:101D7000C10014C0E091C202F091C302E058FD4FCF
:101D800020818091C2029091C30201968F7399279E
:101D90009093C3028093C2022093C600FF91EF91FB
:101DA0009F918F913F912F910F900FBE0F901F9099
:101DB0001895CF92DF92EF92FF92CF93DF93EC01D1
:101DC0006A017B01411581EE580761057105F9F043
:101DD000EC89FD8981E090E00E8C02C0880F991F8C
:101DE0000A94E2F7808360E079E08DE390E0A70158
:101DF00096010E940B2A215031094109510956953B
:101E0000479537952795211580E1380798F0EC899B
:101E1000FD89108260E874E88EE190E0A7019601E8
:101E20000E940B2A215031094109510956954795C5
:101E300037952795E889F9893083EA89FB892083DA
:101E4000EE89FF89408181E090E09C010A8C02C00C
:101E5000220F331F0A94E2F7422B4083EE89FF8959
:101E600040819C010B8C02C0220F331F0A94E2F7C1
:101E7000422B4083EE89FF8940819C010C8C02C07B
:101E8000220F331F0A94E2F7422B4083EE89FF8929
:101E900020810D8C02C0880F991F0A94E2F780956B
:101EA00082238083DF91CF91FF90EF90DF90CF90DE
:101EB0000895109264021092630288EE93E0A0E00D
:101EC000B0E08093650290936602A0936702B0939E
:101ED000680287EF91E0909362028093610284EC44
:101EE00092E090936E0280936D0280E892E090936E
:101EF000700280936F0285EC90E090937202809361
:101F0000710284EC90E0909374028093730280ECF1
:101F100090E0909376028093750281EC90E090932C
:101F200078028093770286EC90E090937A02809317
:101F3000790284E080937B0283E080937C0287E0D7
:101F400080937D0285E080937E0281E080937F0212
:101F500008952091380330E080913903281B31091E
:101F6000C90108958091390390913803891750F47D
:101F7000E82FF0E0E65CFC4F208130E08F5F80933B
:101F8000390302C02FEF3FEFC9010895E0913903F3
:101F900080913803E81730F4F0E0E65CFC4F2081D4
:101FA00030E002C02FEF3FEFC901089508958F92EE
:101FB0009F92AF92BF92CF92DF92EF92FF925C011D
:101FC000CB016A01209114032223A1F07B014B0174
:101FD000840E951E0BC0D7016D917D01D501ED9149
:101FE000FC910190F081E02DC5010995E814F904F8
:101FF00091F703C0642F0E943D11C601FF90EF903E
:10200000DF90CF90BF90AF909F908F900895CF9327
:10201000DF931F92CDB7DEB769832091140322238B
:10202000D1F020911503203240F021E030E0FC0196
:102030003383228320E030E015C080911603E82F1F
:10204000F0E0E95EFC4F998190838F5F80931603E7
:102050008093150305C061E0CE0101960E943D11F9
:1020600021E030E0C9010F90DF91CF910895FC018C
:102070001382128248EE53E060E070E0448355839F
:102080006683778387E092E091838083089510923E
:1020900039031092380310921603109215030C9412
:1020A0008710862F413208F040E26AE373E00E9415
:1020B000A5101092390380933803089521E00C9401
:1020C000511081E08093140360933703109216033C
:1020D0001092150308950C9461100F93062F21E0C0
:1020E0004091150367E173E0809137030E94EA1085
:1020F0001092160310921503109214030F91089575
:1021000061E00C946D1088E093E00C94371010920D
:10211000630381E0809361031092600361E082E1D8
:102120000E94B30961E083E10E94B309E9EBF0E0AA
:1021300080818E7F808380818D7F808388E48093FF
:10214000B80085E48093BC000895413208F03FC098
:10215000909163039111FCCF91E0909363032093DE
:1021600061032FEF20935A0310925F03242F215015
:1021700020935E039093620390916203880F892BF2
:102180008093620380916003813041F41092600378
:10219000809162038093BB0085EC01C085EE809343
:1021A000BC00809163038130E1F380915F03841769
:1021B00010F440915F0324E633E0FB01D90102C033
:1021C0008D9181938A2F821B8417D0F301C040E048
:1021D000842F08950F93413208F046C09091630315
:1021E0009111FCCF92E090936303009361039FEF02
:1021F00090935A0310925F0340935E03FB0164E6E1
:1022000073E0DB0102C091919D939A2F961B941766
:10221000D0F31092620390916203880F892B809310
:10222000620380916003813041F4109260038091D9
:1022300062038093BB0085EC01C085EE8093BC00F7
:10224000222321F0809163038230E1F380915A03CD
:102250008F3F61F080915A03803251F080915A0390
:10226000803341F483E007C081E005C080E003C013
:1022700082E001C084E00F910895613298F42091CA
:102280006303243089F460935C03FC0184E893E0E9
:10229000DC0102C021912D932A2F281B2617D0F391
:1022A00080E0089581E0089582E0089585ED8093AF
:1022B000BC008091BC0084FDFCCF109263030895A4
:1022C00085EC8093BC001092630308951F920F92D7
:1022D0000FB60F9211242F933F934F935F936F93F9
:1022E0007F938F939F93AF93BF93EF93FF938091CF
:1022F000B900887F803609F49FC058F5883209F408
:102300005BC090F4803109F452C038F4882309F49A
:10231000F8C0883009F0F9C04AC0883109F44CC0CF
:10232000803209F0F2C05CC0803409F46BC038F42C
:10233000803309F455C0883309F0E7C054C08035B4
:1023400009F454C0883509F462C0883409F0DDC04E
:10235000DAC0883909F4CBC0A8F4883709F46CC016
:1023600038F4883609F468C0803709F0CEC064C0FC
:10237000883809F4BCC0803909F464C0803809F099
:10238000C4C060C0803B09F48AC038F4803A09F4C4
:102390006BC0883A09F0B9C082C0803C09F4ABC078
:1023A000883C09F4A8C0883B09F0AFC08DC080917B
:1023B00062038093BB0012C090915F0380915E0323
:1023C000981788F580915F03E82FF0E0EC59FC4FF7
:1023D00090819093BB008F5F80935F0385EC88C0F2
:1023E00080935A0390C080935A0356C080915F0334
:1023F0009091BB00E82FF0E0EC59FC4F90838F5F89
:1024000080935F0390915F0380915E036DC0809124
:102410005F039091BB00E82FF0E0EC59FC4F9083F4
:102420008F5F80935F038091610381116CC081E0B5
:102430008093600384EA60C083E08093630310921A
:102440005B03CCCF80915B03803208F050C0809159
:102450005B039091BB00E82FF0E0E855FC4F9083C0
:102460008F5F80935B03BACF80915B03803230F43F
:10247000E0915B03F0E0E855FC4F10820E9456119A
:1024800060915B03E091A403F091A50370E088EAFA
:1024900093E0099510925B030E94601136C084E0BE
:1024A0008093630310925D0310925C03E091A60396
:1024B000F091A703099580915C03811105C081E02B
:1024C00080935C031092840380915D03E82FF0E019
:1024D000EC57FC4F90819093BB008F5F80935D031E
:1024E00090915D0380915C03981708F477CF85E89D
:1024F0008093BC000AC085EC8093BC0010926303FB
:1025000004C010925A030E945611FF91EF91BF919F
:10251000AF919F918F917F916F915F914F913F917B
:102520002F910F900FBE0F901F9018951F93CF9370
:10253000DF93CDB7DEB76D970FB6F894DEBF0FBE51
:10254000CDBFAB011C821B8227E232E03A83298394
:102550001E8221E0BC01CE0101960E94E81B182FCB
:10256000882321F0CE0101960E949A1A812F6D9640
:102570000FB6F894DEBF0FBECDBFDF91CF911F9194
:102580000895EF92FF920F931F93CF93DF93EB0188
:1025900028813981FC01E20FF31FE081EF3211F451
:1025A0002F5F3F4FDA01E0E0F0E07C01E20EF31E26
:1025B00087010E0F1F1FE80118811F3289F01111CA
:1025C00019C00EC02F5F3F4FFB0131832083FC01F8
:1025D000E20FF31F81E09081911114C080E012C0DE
:1025E000E40FF51F1082FC01E20FF31F40814F3210
:1025F00059F7E8CF1D9331962F5F3F4FEC30F1052F
:1026000079F3D6CFDF91CF911F910F91FF90EF908B
:1026100008952F923F924F925F926F927F928F9286
:102620009F92AF92BF92CF92DF92EF92FF920F9361
:102630001F93CF93DF93CDB7DEB7CB54D1090FB63D
:10264000F894DEBF0FBECDBF3C015B012A0119012A
:1026500019A218A267E272E07F8F6E8F1BA21C8204
:102660001B827A8369831E82DE01A85BBF4F1196AD
:102670001C921E9275016E018EE1C80ED11C2B9624
:10268000AFAF2B972C96BFAF2C9701E08824839493
:10269000912C8C0E9D1E08C09E2D8F2D02C0982D52
:1026A000892D7601C92ED82EAE01455C5F4F2B9641
:1026B0006FAD2B972C967FAD2C97C3010E94C11252
:1026C000182F482F40279101BE01655C7F4FC7013D
:1026D000F2010995811109C0EA14FB0409F403C051
:1026E000C7010E949A1A80E01FC0112391F021E0D7
:1026F000AE01455C5F4FB701C6010E94E81B182F71
:10270000EA14FB0471F0C7010E949A1A1111C4CF98
:10271000EACFEA14FB0419F0C7010E949A1A81E07B
:1027200003C08111BCCFDFCFC55BDF4F0FB6F8947C
:10273000DEBF0FBECDBFDF91CF911F910F91FF90F4
:10274000EF90DF90CF90BF90AF909F908F907F9051
:102750006F905F904F903F902F900895CF92DF92AF
:10276000EF92FF927C01462F61E00E94911F811140
:1027700001C013C067018CE0C80ED11C41E0B70155
:10278000C6010E947C25882351F0B601C7018A96B4
:102790000E94B31791E081110AC090E008C040E0A8
:1027A000B701C6010E947C258823B9F3EECF892F9B
:1027B000FF90EF90DF90CF900895FC01DB0112961F
:1027C0008D919C9113979383828387E292E091830A
:1027D000808314968C911497848315968C91159709
:1027E000858316964D915D916D917C9119974683E5
:1027F0005783608771871A964D915D916D917C9199
:102800001D9742875387648775871E964D915D910A
:102810006D917C91519746875787608B718B52964B
:102820008C915297828B53964D915D916D917C91D5
:102830005697438B548B658B768B57964D915D9154
:102840006D917C915A97478B508F618F728F5B96F9
:102850008D919C915C97948F838F08954F925F9296
:102860006F927F928F929F92AF92BF92CF92DF92A0
:10287000EF92FF920F931F93CF93DF93CDB7DEB705
:10288000C754D1090FB6F894DEBF0FBECDBF5C01AF
:102890003A012901665D7F4F4E018EE1880E911C41
:1028A000C4010E94DD131C821B8287E292E09A839E
:1028B00089831E827301CC24C394D12CCC0EDD1EDF
:1028C00084013BC0F70120812F3221F4FFEFEF1A82
:1028D000FF0A33C08E198D3008F08CE0882E912CC1
:1028E000A401B701CE01CB960E94AC2CEBE3F0E043
:1028F000EC0FFD1FE80DF91D1082C6010E949A1A07
:1029000021E0AE01455C5F4FB801C6010E94E81BA3
:10291000811109C0F5011382128287E292E091834E
:10292000808315821BC0E80CF91CC8010E949A1A0A
:10293000902F812F8601C92ED82E6FE270E0C7013B
:102940000E949A2C009709F0BDCFE618F708F20113
:10295000F182E082B801C5010E94DD13C501C95BA7
:10296000DF4F0FB6F894DEBF0FBECDBFDF91CF9122
:102970001F910F91FF90EF90DF90CF90BF90AF909D
:102980009F908F907F906F905F904F900895AF923F
:10299000BF92CF92DF92EF92FF921F93CF93DF937C
:1029A000CDB7DEB7C955D1090FB6F894DEBF0FBE5B
:1029B000CDBF6C015A01122F9E01285A3F4FCE0104
:1029C000CB960E942E146A96EEACFFAC6A97EA0C86
:1029D000FB1CF701808181110AC0BE01655C7F4F3D
:1029E000CE0101960E94DD134BEC51E03DC019A2CF
:1029F00018A287E292E09F8F8E8F1BA221968FAD47
:102A00002197811104C0C6010E94441633C0825030
:102A1000212FA701823048F462EF73E0CE014E9679
:102A20000E94E81B81110EC0EECFBE01655C7F4F96
:102A3000CE014E960E94E81B882329F3CE01CB9647
:102A40000E949A1A167041F049A95AA96BA97CA94B
:102A5000CE014E960E949719BE01625E7F4FCE0155
:102A600001960E94DD13A701BE016F5F7F4FC60173
:102A70000E940816C601C75ADF4F0FB6F894DEBF92
:102A80000FBECDBFDF91CF911F91FF90EF90DF90F0
:102A9000CF90BF90AF900895FB01BC01665D7F4F62
:102AA00020E030E046E952E1CF010C940913109286
:102AB000CD031092CE031092D1031092D30382E083
:102AC00090E0A0E0B0E08093D4039093D503A0936E
:102AD000D603B093D7031092EB031092F503109234
:102AE000F40387E292E09093F3038093F203109251
:102AF000F7030895CF93DF931F92CDB7DEB76983B5
:102B0000DC01ED91FC910280F381E02D41E050E089
:102B1000BE016F5F7F4F09950F90DF91CF910895B0
:102B2000FC01818D928D009711F00C944F1A08953D
:102B3000EF92FF927C01DC0159968D919C915A97FE
:102B4000009709F40FC0FC01138212820E94E71C57
:102B50009C01D7015996ED91FC915A9782819381FE
:102B6000892B41F081E090E013969C938E9312970D
:102B700020E030E0C901FF90EF900895CF93DF93FC
:102B80001F92CDB7DEB741E050E0BE016F5F7F4FCF
:102B90000E940A18019719F4298130E002C02FEF32
:102BA0003FEFC9010F90DF91CF910895FC01818D16
:102BB000928D009711F00C94BE158FEF9FEF089542
:102BC000CF92DF92EF92FF926C01FC01818D928D8A
:102BD0000097B1F00E94BE157C018F3FFFEF9F0769
:102BE00089F0F601818D928DFC01428553856485C3
:102BF000758541505109610971090E94971902C0F8
:102C0000E12CF12CC701FF90EF90DF90CF90089559
:102C1000AF92BF92CF92DF92EF92FF920F931F93EA
:102C20007C015B016A01FC011382128208EE13E051
:102C300020E030E0048315832683378387E192E028
:102C4000918380838DE190E00E94852ADC01F70169
:102C5000928F818F009779F08DE1F50101900D92AF
:102C60008A95E1F74CE050E0B601C7010C960E944E
:102C7000AC2CF701108E1F910F91FF90EF90DF9019
:102C8000CF90BF90AF900895FC011382128248EE5E
:102C900053E060E070E0448355836683778387E187
:102CA00092E091838083128E118E1486089527E11D
:102CB00032E0FC013183208308950F931F93DC01E0
:102CC0005996ED91FC915A97309729F0028513851A
:102CD0002485358503C00FEF1FEF9801B801C901A6
:102CE0001F910F9108950F931F93DC015996ED9159
:102CF000FC915A97309729F00389148925893689E0
:102D000003C000E010E09801B801C9011F910F91C4
:102D100008958F929F92AF92BF92EF92FF927C01A3
:102D2000FC01818D928D892BE1F0C7010E94731601
:102D30004B015C01C7010E945D16A5019401261B91
:102D4000370B480B590BDA01C901811530E893079D
:102D5000A105B10520F08FEF9FE7A0E0B0E09C0156
:102D600002C020E030E0C901FF90EF90BF90AF902B
:102D70009F908F900895DC015996ED91FC915A97A0
:102D8000309721F081E09581911101C080E0089594
:102D9000EF92FF927C019C012A5F3F4F41E050E09F
:102DA00060E070E0FC01838D948D0E9410248823E4
:102DB000A9F0F7014789508D618D728D452B462B07
:102DC000472B71F44681578160857185478B508F01
:102DD000618F728F84818068848302C080E001C02B
:102DE00081E0FF90EF9008958F929F92AF92BF92F3
:102DF000EF92FF92CF937C010E94C816811102C00E
:102E000080E056C0D7015B96ED91FC915C971696D9
:102E10008D909D90AD90BC901997B2E08B1A91085F
:102E2000A108B108058404C0880C991CAA1CBB1C0D
:102E30000A94D2F74685578560897189840E951E5C
:102E4000A61EB71EC481E1E08E1A9108A108B10840
:102E50000BC0C501B4016C0F711D811D911D0E9435
:102E60004222882369F2C150C111F3CFD7015B968A
:102E7000ED91FC915C97812C82E0982EA12CB12CD5
:102E8000058404C0880C991CAA1CBB1C0A94D2F7A8
:102E900053964D915D916D917C915697480D591DBA
:102EA0006A1D7B1DF701438B548B658B768B81E00C
:102EB000CF91FF90EF90BF90AF909F908F9008952B
:102EC000EF92FF927C01462FFC0166857785808911
:102ED00091890E940722882349F0F7012289F0E2B4
:102EE0002F9F90011124265E3B4F02C020E030E06E
:102EF000C901FF90EF900895FB012BE030E2319380
:102F00002150E9F750E0A7E022C04E3241F4AA3048
:102F100041F158E0AAE01BC0E41303C022C022EC38
:102F200030E0F9012F5F3F4FE491E111F5CFA51794
:102F3000C0F04132B0F04F37A0F4FB01E50FF11DB6
:102F4000242F21562A3108F4405240835F5FFC0150
:102F50004191CF014111D9CF81E0FB0190819032A5
:102F600009F480E00895CF92DF92EF92FF927C0106
:102F70006B01FC018581882311F080E046C0FB01D4
:102F800087898031C9F482E0F7018583178A108E22
:102F9000118E128EFB01408D518D60E070E0E5E0F6
:102FA000440F551F661F771FEA95D1F7F701438B32
:102FB000548B658B768B17C08032F9F683E0F7016E
:102FC0008583FB01428D538D648D758DF701478B91
:102FD000508F618F728F97012D5E3F4FC6010E9407
:102FE000EB22882351F2F701D48EC38E81E08483D3
:102FF000168217821086118612861386148615860D
:1030000016861786108A118A128AFF90EF90DF9039
:10301000CF9008952F923F924F925F926F927F923E
:103020008F929F92AF92BF92CF92DF92EF92FF92D8
:103030000F931F93CF93DF9300D000D0CDB7DEB7AF
:103040001C015A834983DC0115968C91811103C0C0
:103050002FEF3FEFFFC0F101848180FFF9CFCCC09B
:10306000C8018C199D099A83898389809A805B01A4
:10307000D1011696BC83AB83B8C0F101C284D3845E
:10308000E484F584412C512C32014A9453944C2011
:103090005D206E207F2045819701860189E036956D
:1030A0002795179507958A95D1F7838D948D423092
:1030B00061F4DC015A966D917D918D919C915D97A3
:1030C000600F711F821F931F48C0FC0174807A94A7
:1030D000702241145104F1F471101CC0CD28CE2887
:1030E000CF2851F4F1018789908DA18DB28D86830F
:1030F0009783A087B1870EC0D10116964D915D913F
:103100006D917C9119972B813C810E9468228823C4
:1031100009F49ECFD1015B96ED91FC915C971696D8
:103120006D917D918D919C911997625071098109E2
:103130009109058404C0660F771F881F991F0A94A0
:10314000D2F70685178520893189600F711F821F8C
:10315000931F670D711D811D911D20E032E0241920
:10316000350934012815390508F43901F1012481A4
:1031700026FD05C06114F2E07F0609F065C0C0902D
:103180000801D0900901E0900A01F0900B016C1544
:103190007D058E059F0509F049C056C0A60CB71CD9
:1031A00012C0C201865E9B4F9C01260D371DFC019B
:1031B000D50102C041914D93E217F307D9F7E81BFF
:1031C000F90BAE0EBF1ED1011A96CD90DD90ED9099
:1031D000FC901D97C60CD71CE11CF11CF101C286A6
:1031E000D386E486F586861897088114910409F041
:1031F00044CF29813A812EC00389148925893689D3
:10320000C284D384E484F584E981FA812F01612C9E
:10321000712C480159018C189D08AE08BF08841410
:103220009504A604B70408F41BCF1FCF75018301D2
:103230009201AB01BC0180911804909119040E9485
:103240008F208111ABCF04CF40E00E940722811173
:10325000A8CFFECEC9010F900F900F900F90DF9175
:10326000CF911F910F91FF90EF90DF90CF90BF9083
:10327000AF909F908F907F906F905F904F903F9016
:103280002F9008958F929F92AF92BF92EF92FF92EC
:10329000CF93DF931F92CDB7DEB77C01FC01858110
:1032A000823018F420E030E037C0F7018284938444
:1032B000A484B58425E0B694A794979487942A951E
:1032C000D1F7FFE08F229924AA24BB2441E050E0EB
:1032D000BE016F5F7F4FC7010E940A18019719F462
:1032E000898190E002C08FEF9FEF0196D9F2F7013C
:1032F0004285538564857585415E5F4F6F4F7F4F73
:103300004287538764877587940195E0220F331FA6
:103310009A95E1F7265E3B4FC9010F90DF91CF915F
:10332000FF90EF90BF90AF909F908F9008954F9235
:103330005F926F927F928F929F92AF92BF92CF9245
:10334000DF92EF92FF920F931F937C012A013B01C2
:10335000DC0115962C911597222309F48BC0539606
:103360008D919D910D90BC91A02D84179507A60776
:10337000B70708F47FC080C0F70142865386648691
:10338000758676C0D701411451046104710461F45B
:1033900016961D921D921D921C921997F701128686
:1033A00013861486158664C01A960D911D912D9171
:1033B0003C911D975B96ED91FC915C97858590E023
:1033C0000996B901A8014150510961097109082EF6
:1033D00004C076956795579547950A94D2F7882447
:1033E0008A94982C5401840C951CA61CB71C04C00C
:1033F000B694A794979487948A95D2F784169506E5
:10340000A606B70620F0012B022B032B51F4F7017F
:103410004789508D618D728D468357836087718790
:1034200017C0841A950AA60AB70A12C0F701468186
:103430005781608571859601838D948D0E946822E5
:10344000F1E08F1A9108A108B108811105C012C0DE
:10345000670186E0C80ED11C81149104A104B10457
:1034600029F7D7011A964D925D926D927C921D9725
:1034700081E006C080E004C0223009F083CF7CCF19
:103480001F910F91FF90EF90DF90CF90BF90AF9082
:103490009F908F907F906F905F904F900895CF9204
:1034A000DF92EF92FF927C01FC0185818823E1F19C
:1034B000848187FF33C061E0C7010E9460176C01FF
:1034C000009791F1F7018581823048F4438954894E
:1034D00065897689F601448F558F668F778FF7015E
:1034E0004789508D618D728DF601538F428F758B98
:1034F000648BE0911104F0911204309759F0B601F9
:103500006A5E7F4FC60148960995F601808D918DC0
:10351000938B828BF70184818F778483FF90EF9068
:10352000DF90CF900C94CC2180E0FF90EF90DF9063
:10353000CF900895EF92FF927C010E944F1A88234A
:1035400021F0F701158281E001C080E0FF90EF904B
:1035500008954F925F926F927F928F929F92AF9257
:10356000BF92EF92FF920F931F93CF93DF9300D000
:1035700000D0CDB7DEB77C014A015B01FC0185813B
:10358000813009F083C0848181FF80C081C0452BD8
:10359000462B472B09F478C0F70142845384648496
:1035A0007584B501A401C7010E949719811101C05A
:1035B0006DC0F701838D948D81149104A104B10431
:1035C00079F44789508D618D728D0E94262588235C
:1035D00009F45CC0F701178A108E118E128E3AC062
:1035E000F70146815781608571859E012F5F3F4FAE
:1035F0000E946822882309F449C049815A816B815D
:103600007C81F701838D948DFC012789203129F479
:1036100008EF1FEF20E030E004C008EF1FEF2FEFAE
:103620003FE04017510762077307A0F40E94262568
:10363000882361F1F70146815781608571850FEF1D
:103640001FEF2FEF3FE0838D948D0E945623811151
:1036500001C01CC0F701838A948AA58AB68A848136
:1036600080688483C7010E944F1A882379F0B501CE
:10367000A401481459046A047B0410F4B301A201A4
:10368000C7010E94971910C081E00EC080E00CC0F5
:10369000F7014389548965897689481559056A0572
:1036A0007B0508F074CFF2CF0F900F900F900F9022
:1036B000DF91CF911F910F91FF90EF90BF90AF904E
:1036C0009F908F907F906F905F904F900895EF92B2
:1036D000FF920F931F93CF937C01C42F80E2689FCA
:1036E000F0011124E65EFB4F8385817129F0842F60
:1036F000827411F080E066C0D70152966C935297A5
:10370000009108011091090120910A0130910B01EB
:103710001E960D931D932D933C9351974489558983
:1037200060E070E0BA0155274427028D138D20E038
:1037300030E0402B512B622B732B57964D935D93AA
:103740006D937C935A978385887159F4048D158DF8
:10375000268D378DF701038B148B258B368B81E0FB
:1037600011C0803139F697012D5E3F4FD7015B962E
:103770008D919C915C970E94EB22882309F4BACF2B
:1037800084E0F70185838C2F8F70D70114968C937A
:103790001497F70116821782108611861A961D92C9
:1037A0001D921D921C921D97C6FF0BC040E050E079
:1037B000BA01C701CF911F910F91FF90EF900C9428
:1037C000A91A81E0CF911F910F91FF90EF9008957A
:1037D0004F925F926F927F928F929F92AF92BF9221
:1037E000CF92DF92EF92FF920F931F93CF93DF93CD
:1037F000CDB7DEB72B970FB6F894DEBF0FBECDBFA7
:103800007C013B01CA01422EF70125812111C7C06D
:10381000AA24A394B12CAC0EBD1EB5010E947C1746
:10382000811101C0BCC0F301838D948DF701948F89
:10383000838FF301168217821086118612861386F3
:1038400014861586512CDA2CCB2C41C0B5E0B694E9
:10385000A79497948794BA95D1F7FFE08F22992483
:10386000AA24BB24182DC3010E944219009709F411
:1038700096C0FC012081222311F0253EB9F451109D
:103880000EC0F701128B00910801109109012091DF
:103890000A0130910B0106871787208B318BFC01C1
:1038A000808155245394882309F111C04BE050E0E6
:1038B000BC018D2D9C2D0E94842C009741F4842DF9
:1038C0008073803309F46BC0442D682D64C0F3010C
:1038D00082849384A484B5840389148925893689D4
:1038E00080169106A206B30608F4B0CF842D82712B
:1038F000823109F054C0552041F061E0C7010E94B7
:1039000060175C01009791F44AC0F3018581823011
:1039100009F445C0C3010E94F416882309F43FC08E
:10392000F701128AAAE1AA2EA4E0BA2E80E2F501DC
:1039300011928A95E9F78BE0FE013196D50101904D
:103940000D928A95E1F7E0911104F09112043097FD
:1039500039F0B501625F7F4FC5014096099509C0F6
:1039600081E298E2F501918B808B80E098E0978767
:103970008687F50180899189938B828B918F808FC7
:1039800086859785978B868B0E94CC21882339F07A
:10399000442DF7016289C7010E94671B01C080E0C6
:1039A0002B960FB6F894DEBF0FBECDBFDF91CF913F
:1039B0001F910F91FF90EF90DF90CF90BF90AF904D
:1039C0009F908F907F906F905F904F9008952F926F
:1039D0003F924F925F926F927F928F929F92AF929F
:1039E000BF92CF92DF92EF92FF920F931F93CF93EC
:1039F000DF93CDB7DEB729970FB6F894DEBF0FBEC1
:103A0000CDBF3C01162F072F1A01DC0115968C91B2
:103A1000813009F078C1F301848181FF74C17BC1D9
:103A2000D30153964D915D916D917C9156971A9665
:103A30008D919D910D90BC91A02D84179507A6079F
:103A4000B70729F43F822E82412E502E21C1C30197
:103A50000E949719882309F456C1F4CFF301838D8E
:103A6000948DDC011496BC91B150B501A40129E0FC
:103A700076956795579547952A95D1F7B423BD83D9
:103A8000E1E09E22AA24BB2499868886B1114EC00B
:103A90008114910409F04AC0D30116964D915D91AD
:103AA0006D917C911997411551056105710561F47E
:103AB00057960D911D912D913C915A970115110525
:103AC0002105310571F527C09E012F5F3F4F0E94F0
:103AD0006822811101C01CC109811A812B813C819E
:103AE000D3015B96ED91FC915C978789803139F425
:103AF00098EFC92EDD24DA94E12CF12C07C088EF71
:103B0000C82EDD24DA94ED2C8FE0F82E0C151D055F
:103B10002E053F0530F0C3010E94C816811106C072
:103B2000F2C0F301068317832087318780E092E09B
:103B300028853985821B930BEE80FF808E159F05AB
:103B400008F47C01D3015B96ED91FC915C9716968D
:103B50008D909D90AD90BC901997B2E08B1A910812
:103B6000A108B108058404C0880C991CAA1CBB1CC0
:103B70000A94D2F786859785A089B189880E991E07
:103B8000AA1EBB1EED818E0E911CA11CB11CE1145E
:103B9000F2E0FF0639F5009108011091090120912A
:103BA0000A0130910B01081519052A053B0559F446
:103BB0008FEF9FEFDC018093080190930901A093A0
:103BC0000A01B0930B019201B501A4018091180480
:103BD000909119040E947A21882309F494C09EEFE1
:103BE000591A40C0A885B985AB2B09F5F301828528
:103BF0009385A485B585038914892589368980171D
:103C00009107A207B30798F00E94CC21882309F4FA
:103C10007AC08092080190920901A0920A01B092A4
:103C20000B018091170481608093170408C041E064
:103C3000C501B4010E940722882309F464C0888565
:103C40009985865E9B4F9C012E0D3F1DD201FC0184
:103C500002C04D914193E217F307D9F7E81BF90B26
:103C60004E0E5F1E2E813F812E193F093F832E830A
:103C7000D3011A968D909D90AD90BC901D978E0C9F
:103C80009F1CA11CB11CF30182869386A486B58675
:103C9000D3011A968D909D90AD90BC901D97EE81AA
:103CA000FF81EF2B09F0DACE53960D911D912D91E6
:103CB0003C915697081519052A053B0568F453965B
:103CC0008D929D92AD92BC92569714968C911497BA
:103CD000806814968C930DC0809111049091120409
:103CE000892B39F02114310421F0F301848180689B
:103CF0008483D30114968C9183FF10C0C3010E946A
:103D00004F1A81110BC081E090E0F301938382830D
:103D1000212C312C03C082FD83CE94CEC101299683
:103D20000FB6F894DEBF0FBECDBFDF91CF911F91CC
:103D30000F91FF90EF90DF90CF90BF90AF909F904A
:103D40008F907F906F905F904F903F902F9008954D
:103D5000CF93DF931F92CDB7DEB7698341E050E088
:103D6000BE016F5F7F4F0E94E71C0F90DF91CF91E4
:103D700008958EBD0DB407FEFDCF08958FEF0E940C
:103D8000B91E8EB5089561E0FC0184810C94B309DD
:103D900060E0FC0184810C94B309EF92FF927C01F6
:103DA000FC0186818823D9F08FEF8EBD4FEF04C0D0
:103DB0000DB407FEFDCF4EBDF701878190859C01B4
:103DC0002F5F3F4F308727838130924088F30DB4B7
:103DD00007FEFDCFC7010E94C31EF7011682FF90A8
:103DE000EF900895673028F026E1FC01258380E0FC
:103DF00008958DB560FD02C0663011F48E7F01C05C
:103E000081608DBD8CB58C7F8CBD9CB562FF02C07E
:103E100082E001C080E066956170692B682B6CBD03
:103E200081E00895CF92DF92EF92FF927B010E9492
:103E30002B296B010E94BE1E8F3F49F00E942B2947
:103E40006C197D096E157F05A8F380E001C081E043
:103E5000FF90EF90DF90CF900895CF92DF92EF9296
:103E6000FF921F93CF93DF9300D000D0CDB7DEB782
:103E70007C01162F29833A834B835C830E94CD1EDD
:103E8000C7010E94C81E6CE271E0C7010E94121FA8
:103E9000812F80640E94B91E88E1C82ED12C5C81DC
:103EA0004B813A812981DA01C9010C2C04C0B695F5
:103EB000A795979587950A94D2F729833A834B83E0
:103EC0005C830E94B91E88E0C81AD10829813A8112
:103ED0004B815C81E8EFCE16EFEFDE0621F7112370
:103EE00021F0183021F08FEF03C085E901C087E889
:103EF0000E94B91E10E00E94BE1EF701828787FF54
:103F000004C01F3F11F01F5FF6CF0F900F900F906E
:103F10000F90DF91CF911F91FF90EF90DF90CF90A6
:103F200008958F929F92AF92BF92CF92DF92EF92BD
:103F3000FF92CF93DF937C01C62FFC01138611867D
:103F40001682158244830E942B296B0161E0F701E0
:103F500084810E947B09C7010E94C31E60E08CE03F
:103F60000E947B0961E08BE00E947B0961E08DE0AB
:103F70000E947B0961E08AE00E947B0961E08AE09F
:103F80000E94B30983E58CBD8DB58E7F8DBDDAE0CF
:103F90008FEF0E94B91ED150D9F7C7010E94C81EE9
:103FA00009C00E942B296C197D09613D774010F0F2
:103FB00081E05CC020E030E0A90160E0C7010E9420
:103FC0002D1FD82FF7018287813059F72AEA31E077
:103FD00040E050E068E0C7010E942D1F82FF03C04F
:103FE000F701D3870EC0D4E00E94BE1EF70182877E
:103FF000D150D1F78A3A11F082E039C082E0F7015E
:104000008387F7018385823031F4812C912CA12C98
:1040100090E4B92E0DC0812C912C540109C00E944E
:104020002B296C197D09613D774010F088E01EC096
:1040300020E030E0A90167E3C7010E942D1FA50120
:10404000940169E2C7010E942D1FF7018287811147
:10405000E6CF83858230D9F420E030E0A9016AE31D
:10406000C7010E942D1F882321F086E0F701858378
:104070001FC00E94BE1E807C803C19F483E0F701C3
:1040800083870E94BE1E0E94BE1E0E94BE1EC701E4
:104090000E94C31E6C2FC701DF91CF91FF90EF905C
:1040A000DF90CF90BF90AF909F908F900C94F21EB6
:1040B000C7010E94C31E80E0DF91CF91FF90EF9077
:1040C000DF90CF90BF90AF909F908F900895CF9248
:1040D000DF92EF92FF927C010E942B296B010AC0B4
:1040E0000E942B296C197D096D32714018F08FE008
:1040F000F70109C00E94BE1EF70182878F3F81F33E
:104100008E3F39F08DE08583C7010E94C31E80E099
:1041100001C081E0FF90EF90DF90CF9008954F9223
:104120005F926F927F928F929F92AF92BF92CF9247
:10413000DF92EF92FF920F931F935C0139014801C8
:1041400027010115110509F47CC0C801820F931FD6
:104150008130924008F077C0F5018681882371F0A4
:10416000C080D180E280F3804C155D056E057F052F
:1041700029F4878190856816790630F5F50140832A
:104180005183628373838385833039F0E9E0440F80
:10419000551F661F771FEA95D1F79A01AB0161E1C0
:1041A000C5010E942D1F882321F083E0F50185833E
:1041B0004AC0C5010E946720882309F444C0F50164
:1041C0001086178281E086838FEF8EBD2FEF0AC0A5
:1041D0000DB407FEFDCF2EBDF501878190850196B8
:1041E00090878783F501878190858615970580F3F1
:1041F000C4010197F2014FEF06C00DB407FEFDCFD9
:104200002EB521934EBD9F01241935092817390772
:10421000A0F30DB407FEFDCF2EB5F201E80FF91F94
:104220002083F50187819085880D991D908787836C
:104230002185222319F08115924018F0C5010E94B2
:10424000CD1E81E004C0C5010E94C31E80E01F9105
:104250000F91FF90EF90DF90CF90BF90AF909F9025
:104260008F907F906F905F904F900895EF92FF92A4
:104270000F931F93790100E012E020E030E00E94EC
:104280008F201F910F91FF90EF900895EF92FF9272
:104290007C016EBD20E030E00DB407FEFDCFFA01D9
:1042A000E20FF31F80818EBD0DB407FEFDCF81812B
:1042B0008EBD2E5F3F4F211582E0380769F70DB4A0
:1042C00007FEFDCF8FEF0E94B91E8FEF0E94B91E2F
:1042D0000E94BE1EF70182878F71853039F081E11F
:1042E0008583C7010E94C31E80E001C081E0FF906A
:1042F000EF900895CF92DF92EF92FF927C016901D7
:10430000411551056105710511F482E139C0FC01C7
:104310008385833039F0F9E0440F551F661F771FFE
:10432000FA95D1F79A01AB0168E1C7010E942D1FF0
:10433000882311F084E024C0A6016EEFC7010E941B
:1043400046218823B9F068E572E0C7010E94121F78
:10435000811102C085E114C020E030E0A9016DE0C8
:10436000C7010E942D1F81110AC00E94BE1E81112B
:1043700006C009C0C7010E94C31E80E008C084E1D6
:10438000F7018583F7CFC7010E94C31E81E0FF902C
:10439000EF90DF90CF90089580911704882399F1D2
:1043A000409108015091090160910A0170910B013F
:1043B0002AE134E080911804909119040E947A2136
:1043C000882319F14091130450911404609115044D
:1043D00070911604411551056105710591F02AE1AE
:1043E00034E080911804909119040E947A21882366
:1043F00061F010921304109214041092150410929C
:1044000016041092170481E0089580E008958F92B9
:104410009F92AF92BF92CF934B015C01C42F8091CA
:10442000080190910901A0910A01B0910B01881532
:104430009905AA05BB05D1F00E94CC21811102C0CB
:1044400080E01AC02AE134E0B501A401809118048B
:10445000909119040E943621882391F380920801DB
:1044600090920901A0920A01B0920B018091170469
:104470008C2B8093170481E0CF91BF90AF909F90D9
:104480008F9008958F929F92AF92BF924B015C01E3
:104490000E94CC218823B1F0EAE1F4E0119286E099
:1044A000EA31F807D9F78092080190920901A092A9
:1044B0000A01B0920B018091170481608093170468
:1044C00081E001C080E0BF90AF909F908F900895F1
:1044D0008F929F92AF92BF92CF92DF92EF92FF9214
:1044E0000F931F937C014A015B016901FC01418527
:1044F0005285638574854F5F5F4F6F4F7F4F4815BF
:1045000059056A057B0510F480E05AC0FC018389D7
:104510009489A589B6892789203129F477276B2DBD
:104520005A2D492D09C0B501A40127E0769567955C
:10453000579547952A95D1F78A019B01080F191FB6
:104540002A1F3B1FC901B801009108011091090100
:1045500020910A0130910B016017710782079307C0
:1045600029F4F70187898031A1F406C040E00E9458
:1045700007228111F6CFC8CF9924AA24BB24F401C5
:10458000EE0FFF1FE65EFB4F80819181A0E0B0E05F
:1045900011C0E89487F89924AA24BB24F401EE0FF3
:1045A000FF1FEE0FFF1FE65EFB4F80819181A2810E
:1045B000B381BF70F60180839183A283B38381E0CE
:1045C0001F910F91FF90EF90DF90CF90BF90AF9031
:1045D0009F908F9008954F925F926F927F928F92EB
:1045E0009F92AF92BF92CF92DF92EF92FF92CF93C2
:1045F000DF9300D000D0CDB7DEB77C0149835A836A
:104600006B837C836901812C912C5401412C42E005
:10461000542E612C712C49815A816B817C819E01C1
:104620002F5F3F4FC7010E946822882359F1D301B1
:10463000C201F701058404C0880F991FAA1FBB1F80
:104640000A94D2F7880E991EAA1EBB1E89819A81F0
:10465000AB81BC812789203129F448EF5FEF60E00E
:1046600070E004C048EF5FEF6FEF7FE084179507BD
:10467000A607B70780F2F60180829182A282B382F8
:1046800081E001C080E00F900F900F900F90DF91BC
:10469000CF91FF90EF90DF90CF90BF90AF909F9021
:1046A0008F907F906F905F904F9008954F925F92A0
:1046B0006F927F928F929F92AF92BF92EF92FF92F2
:1046C0000F931F93CF93DF9300D000D0CDB7DEB709
:1046D0007C014A015B0109831A832B833C834230AE
:1046E00051056105710508F487C0D70119964D91F0
:1046F0005D916D917C911C974F5F5F4F6F4F7F4F26
:10470000481559056A057B0508F476C053964D9007
:104710005D906D907C90569757968C91803129F4DE
:1047200077276B2D5A2D492D09C0B501A401E7E06B
:104730007695679557954795EA95D1F7440E551E9E
:10474000661E771E8091080190910901A0910A01CF
:10475000B0910B01481659066A067B0629F4F70149
:1047600087898031B1F408C040E0C301B2010E94E2
:1047700007228111F4CF40C09924AA24BB24F4015C
:10478000EE0FFF1FE65EFB4F89819A819183808344
:1047900014C0E89487F89924AA24BB24F401EE0FEE
:1047A000FF1FEE0FFF1FE65EFB4F89819A81AB81F1
:1047B000BC8180839183A283B3838091170481603D
:1047C00080931704D70152968C915297823090F0C3
:1047D00015968D919D910D90BC91A02D840D951DE8
:1047E000A61DB71D8093130490931404A093150481
:1047F000B093160481E001C080E00F900F900F90FD
:104800000F90DF91CF911F910F91FF90EF90BF908C
:10481000AF909F908F907F906F905F904F90089592
:104820002F923F924F925F926F927F928F929F92C0
:10483000AF92BF92CF92DF92FF920F931F93CF93CD
:10484000DF93CDB7DEB760970FB6F894DEBF0FBE2B
:10485000CDBF1C014D875E876F87788B6901D901B9
:104860004D905D906D907C904114510461047104F1
:1048700031F0BFEF4B1A5B0A6B0A7B0A10C0FC01D8
:104880004080518062807380FF24F3942D853E85A3
:104890004F855889213031054105510509F0F12C2A
:1048A000D10119968D919D910D90BC91A02D0196ED
:1048B000A11DB11D89879A87AB87BC87530142012F
:1048C0001D821E821F821886F10181859285A38533
:1048D000B4852D813E814F815885281739074A07B5
:1048E0005B0708F058C089859A85AB85BC8588151B
:1048F0009905AA05BB0550F4A2E08A2E912CA12CA3
:10490000B12CB2E04B2E512C612C712C9E012F5FEB
:104910003F4FB501A401C1010E9468228823D9F14B
:1049200089819A81AB81BC81B501A4014F5F5F4F42
:104930006F4F7F4F892B8A2B8B2B19F02A013B015C
:104940000DC044195509660977098D859E85AF8587
:10495000B889481759076A077B0791F02D813E8176
:104960004F8158852F5F3F4F4F4F5F4F2D833E83C1
:104970004F8358873FEF831A930AA30AB30AA4CF41
:104980000FEF1FEF2FEF3FE0A401B501C1010E941F
:104990005623811118C080E041C0D501C4010197A0
:1049A000A109B1098D839E83AF83B88795018401E6
:1049B000AC01BD01C1010E945623882361F38D80A3
:1049C0009E80AF80B884481459046A047B0428F39D
:1049D000D6014D915D916D917C9141155105610517
:1049E000710541F4F6014082518262827382F110B6
:1049F00009C013C093018201C1010E945623811195
:104A0000F1CFC9CFFFEF4F1A5F0A6F0A7F0AD101BA
:104A10004D925D926D927C92139781E060960FB6F5
:104A2000F894DEBF0FBECDBFDF91CF911F910F91E4
:104A3000FF90DF90CF90BF90AF909F908F907F902E
:104A40006F905F904F903F902F9008958F929F921C
:104A5000AF92BF92EF92FF920F931F93CF93DF938A
:104A600000D000D0CDB7DEB77C014A015B0142E047
:104A700050E060E070E0FC01408351836283738307
:104A80009E012F5F3F4FB501A401C7010E9468221C
:104A9000882311F100E010E09801B501A401C701DD
:104AA0000E9456238823C1F089809A80AB80BC8005
:104AB000F7018789803129F448EF5FEF60E070E00B
:104AC00004C048EF5FEF6FEF7FE084169506A606FF
:104AD000B706B0F281E001C080E00F900F900F9018
:104AE0000F90DF91CF911F910F91FF90EF90BF90AA
:104AF000AF909F908F9008956F927F928F929F9228
:104B0000AF92BF92CF92DF92EF92FF92CF93DF935B
:104B10003C01C42F7093190460931804442349F195
:104B2000453010F080E009C140E060E070E0CB016A
:104B30000E9407228823B1F320E1C29FF0011124D3
:104B4000E853FA4F80818F7769F7C484D584E6846F
:104B5000F78434E6C316D104E104F10418F3808429
:104B60009184A284B38481149104A104B10421F43A
:104B7000D9CF812C912C540140E0C501B4010E9491
:104B80000722882379F280912504909126048115CB
:104B9000924041F630912A04332321F28091280477
:104BA00090912904892B09F4BDCF20912704222359
:104BB00009F4B8CFD30152963C93529714962C9394
:104BC00014971D961C9230E041E050E007C08E2FF4
:104BD0008F5FE3018D87E83008F0A4CFD3011D96E5
:104BE000EC91CA010E2E02C0880F991F0A94E2F7B9
:104BF0002817390761F720913004309131042115CD
:104C0000310519F040E050E008C020913E04309199
:104C10003F044091400450914104E3012D833E83C1
:104C20004F8358878091280490912904750164016D
:104C3000C80ED91EE11CF11CD301CB8ADC8AED8A97
:104C4000FE8AC0912B04D0912C045996DC93CE930C
:104C50005897A0912A04B0E00E94E0296C0D7D1DB8
:104C60008E1D9F1DD3015A966D937D938D939C93BA
:104C70005D979E01C5E0220F331FCA95E1F72150D1
:104C80003E4F232F33272695DC01CB01820F931F44
:104C9000A11DB11DE3018E879F87A88BB98BC090A2
:104CA0002D04D0902E04C114D10419F0E12CF12C64
:104CB00008C0C0903A04D0903B04E0903C04F090CF
:104CC0003D04A5019401281B390B4A0B5B0BDA014B
:104CD000C9018C0D9D1DAE1DBF1D04C0B695A795C5
:104CE00097958795EA95D2F7E30189879A87AB87ED
:104CF000BC87853FDFE09D07A105B10520F48CE06E
:104D0000F301878B19C0853F9F4FA105B10528F49A
:104D100080E1D30157968C930FC040914604509187
:104D200047046091480470914904E3014A8F5B8F06
:104D30006C8F7D8F80E28F8B81E0DF91CF91FF9030
:104D4000EF90DF90CF90BF90AF909F908F907F902B
:104D50006F900895DC01ED91FC910190F081E02DC0
:104D6000099481E00895EF92FF9268E670E088E090
:104D700093E00E946B1060911A0670911B0688E008
:104D800093E00E94AA2688E093E00E94801041E010
:104D900050E068E670E088E093E00E945E1088E0F2
:104DA00093E00E94B20F87FBEE24E0F8F12C81E043
:104DB000E8268E2DFF90EF9008951F93CF93DF93F9
:104DC000CDB7DEB72B970FB6F894DEBF0FBECDBFC1
:104DD00068E670E088E093E00E946B1060911A062C
:104DE00070911B0688E093E00E94AA2688E093E079
:104DF0000E94801047E050E068E670E088E093E0B1
:104E00000E945E1088E093E00E94B20F8F7799278E
:104E10009C01F4E035952795FA95E1F71AEF782F84
:104E2000129F700D112488E093E07B870E94B20FDF
:104E30009C013327A4E035952795AA95E1F7682FC3
:104E4000129F600D112488E093E06A870E94B20FE0
:104E50009C013327B4E035952795BA95E1F7582F93
:104E6000129F500D112488E093E059870E94B20FE1
:104E700088E093E00E94B20F9C01332794E03595BF
:104E800027959A95E1F7482F129F400D112488E04D
:104E900093E048870E94B20F9C01332744E0359588
:104EA00027954A95E1F7382F129F300D112488E09D
:104EB00093E03F830E94B20FFC01FF2754E0F59579
:104EC000E7955A95E1F7282F1E9F200D11243F8169
:104ED000488559856A857B8580E090E02B960FB6E2
:104EE000F894DEBF0FBECDBFDF91CF911F91089523
:104EF000FC016683478381E084870895EF92FF92E7
:104F00007C0160E0FC0186810E947B0961E0F70181
:104F100086810E94B309F7011086118612861386D6
:104F2000FF90EF900895CF92DF92EF92FF920F9350
:104F30001F93CF937C0161E0FC0186810E94B3093D
:104F40006AEF70E080E090E00E9467290E942B29C0
:104F5000F701008511852285338560177107820767
:104F6000930720F41086118612861386F701248594
:104F7000211111C00085118522853385DC01CB010B
:104F8000801B910BA20BB30B803D9740A105B1058F
:104F900010F481E075C0F70114860E942B29F701F7
:104FA00060877187828793871482138212821182AD
:104FB000108261E086810E947B0960E0F7018681B2
:104FC0000E94B30964E170E080E090E00E946729EC
:104FD000F89461E0F70186810E94B30988E290E0CD
:104FE0000E948F2960E0F70186810E947B0910E012
:104FF000C0E081E008C00F5F81E090E00E948F294F
:105000000F3F21F40AC000E0C82ED12CF7018681A1
:105010000E94EA098C159D0571F3F70186810E94B3
:10502000EA090F3FB1F0143088F010FD0FC09C2F3B
:10503000969596959695F701E90FF11D9081990F38
:10504000073008F401C091609083CF5F1F5F153572
:10505000D1F67894C83298F0F701248130E040818D
:10506000818190E0840F911D4281840F911D4381C5
:10507000840F911D99272817390709F48ACF80E0FA
:10508000CF911F910F91FF90EF90DF90CF900895F7
:10509000CF92DF92EF92FF920F931F93CF93DF9304
:1050A0007C01C62F0E949327882309F477C0F7015B
:1050B00087818B3039F008F471C08551823008F057
:1050C0006DC01DC0F701628170E080E090E00E9439
:1050D0006005B62FA72FF82FE92F462F572F682FDF
:1050E000792FCB01BA01CC2309F462C020E030E073
:1050F00040E151E46B2F7A2F8F2F9E2F37C0F7019D
:10510000D2816D2F6F7770E080E090E00E94B5044F
:1051100020E030E040E853E40E9473026B018C0110
:10512000F701638170E080E090E00E94B5049B018C
:10513000AC016C2D7D2D802F912F0E94170220E055
:1051400030E040E251E40E945803472F382F292FC6
:10515000862F942FA32FB22FBC01CD01D7FD9058DD
:10516000CC2331F120E030E040E151E40E947302B1
:1051700020E030E040EA50E40E94580320E030E0B4
:1051800040E052E40E941702472F382F292F862F24
:10519000942FA32FB22FBC01CD010AC06BE272E0A5
:1051A00081E692E00E941D0C60E070E080EC9FE7D9
:1051B000DF91CF911F910F91FF90EF90DF90CF90F3
:1051C00008951F920F920FB60F9211242F933F93C1
:1051D0008F939F93AF93BF9380911C0690911D0670
:1051E000A0911E06B0911F0630912406232F2D5F3B
:1051F0002D3720F40196A11DB11D05C0232F2A577C
:105200000296A11DB11D2093240680931C06909345
:105210001D06A0931E06B0931F0680912006909154
:105220002106A0912206B09123060196A11DB11D71
:105230008093200690932106A0932206B093230624
:10524000BF91AF919F918F913F912F910F900FBE82
:105250000F901F9018950F931F938FB7F89400919C
:105260001C0610911D0620911E0630911F068FBF4F
:10527000B801C9011F910F9108950F931F939FB714
:10528000F894009120061091210620912206309179
:10529000230686B5A89B06C08F3F21F00F5F1F4FE6
:1052A0002F4F3F4F9FBF322F212F102F0027080F66
:1052B000111D211D311D42E0000F111F221F331F40
:1052C0004A95D1F7B801C9011F910F9108958F92A6
:1052D0009F92AF92BF92EF92FF924B015C010E94AE
:1052E0003D297B0110C00E943D296E197F09683E4F
:1052F000734048F081E0881A9108A108B10888E15C
:10530000E81A8CEFF80A81149104A104B10459F74A
:10531000FF90EF90BF90AF909F908F90089501976E
:1053200039F0880F991F880F991F02970197F1F79D
:105330000895789484B5826084BD84B5816084BD0D
:1053400085B5826085BD85B5816085BDEEE6F0E0FE
:10535000808181608083E1E8F0E01082808182605A
:105360008083808181608083E0E8F0E080818160DB
:105370008083E1EBF0E0808184608083E0EBF0E00B
:10538000808181608083EAE7F0E0808184608083AF
:105390008081826080838081816080838081806859
:1053A00080831092C1000895A29FB001B39FC001F5
:1053B000A39F01D0B29F700D811D1124911D0895EE
:1053C0000E94D429A59F900DB49F900DA49F800D9D
:1053D000911D11240895991B79E004C0991F961717
:1053E00008F0961B881F7A95C9F780950895AA1B27
:1053F000BB1B51E107C0AA1FBB1FA617B70710F0C0
:10540000A61BB70B881F991F5A95A9F780959095F1
:10541000BC01CD010895A1E21A2EAA1BBB1BFD0100
:105420000DC0AA1FBB1FEE1FFF1FA217B307E40783
:10543000F50720F0A21BB30BE40BF50B661F771FDB
:10544000881F991F1A9469F76095709580959095BB
:105450009B01AC01BD01CF0108952F923F924F9265
:105460005F926F927F928F929F92AF92BF92CF92F4
:10547000DF92EF92FF920F931F93CF93DF93CDB7FD
:10548000DEB7CA1BDB0B0FB6F894DEBF0FBECDBF75
:1054900009942A88398848885F846E847D848C8446
:1054A0009B84AA84B984C884DF80EE80FD800C814F
:1054B0001B81AA81B981CE0FD11D0FB6F894DEBF32
:1054C0000FBECDBFED010895EE0FFF1F0590F491C3
:1054D000E02D09940E94732A84FF0895CB010E9455
:1054E000732A805F0895AA27992329F4A85F982B2F
:1054F00011F480E10895903118F4AD5F9295A39571
:10550000990FE8F78A2F992708950F931F93CF9348
:10551000DF938230910510F482E090E0E09127065D
:10552000F091280620E030E0C0E0D0E023C04081C8
:10553000518148175907A8F04817590761F482812B
:105540009381209719F09B838A832EC0909328061D
:105550008093270629C02115310529F042175307EA
:1055600010F0A90102C0BE01DF0102811381EF0129
:105570009A01F8013097D9F62115310509F1281B58
:10558000390B2430310590F412968D919C9113972C
:105590006115710521F0FB019383828304C0909310
:1055A000280680932706FD01329644C0FD01E20FD4
:1055B000F31F81939193225031092D933C933AC06C
:1055C0002091250630912606232B41F420910201DB
:1055D0003091030130932606209325062091000187
:1055E000309101012115310541F42DB73EB74091AD
:1055F000040150910501241B350BE0912506F09123
:105600002606E217F307A0F42E1B3F0B28173907D5
:1056100078F0AC014E5F5F4F2417350748F04E0F0E
:105620005F1F50932606409325068193919302C0F5
:10563000E0E0F0E0CF01DF91CF911F910F9108954D
:10564000EF92FF920F931F93CF93DF93009709F48C
:105650008EC0DC01129713961C921E921297E09056
:105660002706F0902806E114F10489F42D913C916D
:105670001197280F391F80912506909126068217D1
:10568000930789F5B0932606A093250670C0E7011D
:1056900020E030E001C0EA01CA17DB0738F44A8194
:1056A0005B819E0141155105B1F722C0AC0142500A
:1056B0005109FA01D383C28300811181BC01600FBB
:1056C000711F6C177D0761F468817981600F711F0C
:1056D0006E5F7F4F718360836A817B817383628396
:1056E0002115310529F4B0932806A09327063FC061
:1056F000F901B383A283E90149915991C40FD51FE0
:10570000AC17BD0771F4DC019E918E91840F951F3B
:1057100002969183808312968D919C911397938327
:105720008283A0E0B0E002C0D7017C01F701828152
:1057300093810097C9F7C701029620813181820FBA
:10574000931F20912506309126062817390779F4F2
:10575000109729F4109228061092270604C0139679
:105760001C921E921297F0922606E0922506CDB763
:10577000DEB7E6E00C94552AA0E0B0E0E2ECFBE2F4
:105780000C94332AEC01009729F4CB010E94852A5E
:10579000EC01B4C0DC01A60FB71FFC013297AE17B5
:1057A000BF0718F4C0E0D0E0A9C00081118106173E
:1057B0001707B0F00530110508F4A0C0C801049720
:1057C0008617970708F49AC002501109061B170B99
:1057D0000D931D9371836083CD010E94202B8EC099
:1057E0006B01C01AD10A7C01E00EF11EE091270680
:1057F000F091280620E030E080E090E048C0EE150F
:10580000FF05D1F580809180540142E0A40EB11CC7
:10581000AC14BD0488F17401EC18FD08670122E0A6
:10582000C20ED11C9E012250310945E0C416D1049C
:1058300078F04281538113965C934E9312971196A0
:10584000FC92EE92F901718360833A2F2B2F09C0ED
:105850000E5F1F4F080D191DD9010D931C93328146
:105860002381009721F0FC013283238347C03093CA
:1058700027062093280642C0808191812817390786
:1058800008F49C0152814381CF01E52FF42F30971A
:1058900009F0B5CF80912506909126068E159F05BB
:1058A000F1F426173707D8F4809100019091010197
:1058B000009741F48DB79EB7209104013091050106
:1058C000821B930BA817B90708F06CCFB09326067C
:1058D000A0932506FE013297718360830FC0CB0130
:1058E0000E94852A7C01009709F45CCFA801BE01C3
:1058F0000E94912CCE010E94202BE701CE01CDB752
:10590000DEB7ECE00C944F2AFB01DC0104C08D9162
:105910000190801921F441505040C8F7881B990B21
:105920000895FB01DC0102C001900D9241505040EE
:10593000D8F70895FC018191861721F08823D9F7C3
:10594000992708953197CF010895FB01DC0101905B
:105950000D920020E1F70895FB01DC014150504019
:1059600048F001900D920020C9F701C01D924150EE
:105970005040E0F70895FB019F01E8944230C4F0E5
:105980004532B4F44A3029F497FB1EF49095819582
:105990009F4F642F77270E94F729805D8A330CF090
:1059A000895D8193CB010097A1F716F45DE25193D5
:1059B0001082C9010C94F22CFB019F01423074F05B
:1059C000453264F4642F77270E94F729805D8A337B
:1059D0000CF0895D8193CB010097A1F71082C9017A
:1059E0000C94F22CDC01FC01672F71917723E1F715
:1059F000329704C07C916D9370836291AE17BF079C
:105A0000C8F3089510E0CAEDD0E004C0FE010E9482
:0E5A1000662A2296CC3DD107C9F7F894FFCF45
:105A1E00000029062000FFFFFFFFFFFF000000002F
:105A2E0000000000525443206973204E4F542072E0
:105A3E00756E6E696E672100496E697469616C6975
:105A4E007A696E6720534420636172642E2E2E0095
:105A5E00696E697469616C697A6174696F6E2066CA
:105A6E0061696C65642100696E697469616C697A3B
:105A7E006174696F6E20646F6E652E00636F756C56
:105A8E00646E74206372656174652066696C65006E
:105A9E004C6F6767696E6720746F3A2000444854F4
:105AAE007878207465737421004C4F474745523007
:105ABE00302E4353560049442C20444154452C204B
:105ACE0054494D452C2054454D5045524154555244
