:100000000C945D000C9485000C9485000C94850084
:100010000C9485000C9485000C9485000C9485004C
:100020000C9485000C9485000C9485000C9485003C
:100030000C9485000C9485000C9485000C9485002C
:100040000C9446010C9485000C9434030C947003BA
:100050000C9485000C9485000C9485000C9485000C
:100060000C9485000C94850000000007000201003C
:100070000003040600000000000000000102040864
:100080001020408001020408102001020408102002
:10009000040404040404040402020202020203032E
:1000A0000303030300000000250028002B000000CC
:1000B0000000240027002A002B0411241FBECFEFCC
:1000C000D8E0DEBFCDBF11E0A0E0B1E0EAE4F9E0A6
:1000D00002C005900D92A631B107D9F711E0A6E153
:1000E000B1E001C01D92A63CB107E1F710E0CAEBF8
:1000F000D0E004C02297FE010E949F04C83BD107B4
:10010000C9F70E9488020C94A3040C94000061E0DB
:1001100089E00E94D70040E855E260E070E08FE19E
:1001200091E00C94AB0361E089E00E940F0168EE5E
:1001300073E080E090E00E94BA0160E089E00E94F4
:100140000F0164EF71E080E090E00E94BA0160E08E
:1001500071E08FE191E00C947402833069F028F42F
:100160008130A1F0823011F514C08630B1F08730B3
:10017000C1F08430D9F404C0809180008F7703C02F
:10018000809180008F7D80938000089584B58F7763
:1001900002C084B58F7D84BD08958091B0008F77B3
:1001A00003C08091B0008F7D8093B0000895CF93FD
:1001B000DF9390E0FC01E458FF4F4491FC01E057CD
:1001C000FF4F8491882341F190E0880F991FFC0133
:1001D000E255FF4F25913491D9018C559F4FFC0179
:1001E00085919491C82FD92F9FB7F8948C91611164
:1001F00006C0409584238C938881842308C0623094
:1002000041F4242F209582238C938881842B88832A
:1002100002C0842B8C939FBFDF91CF9108950F93E1
:100220001F93CF93DF931F92CDB7DEB7282F30E017
:10023000F901E859FF4F8491F901E458FF4F1491F7
:10024000F901E057FF4F04910023D1F0882321F0FA
:1002500069830E94AD006981E02FF0E0EE0FFF1F7F
:10026000EC55FF4F85919491DC019FB7F8948C91E8
:10027000611103C01095812301C0812B8C939FBF16
:100280000F90DF91CF911F910F9108951F920F92C0
:100290000FB60F9211242F933F938F939F93AF9399
:1002A000BF938091160190911701A0911801B09110
:1002B000190130911E01232F2D5F2D3720F4019657
:1002C000A11DB11D05C0232F2A570296A11DB11DE6
:1002D00020931E018093160190931701A09318019B
:1002E000B093190180911A0190911B01A0911C01FA
:1002F000B0911D010196A11DB11D80931A0190932B
:100300001B01A0931C01B0931D01BF91AF919F9160
:100310008F913F912F910F900FBE0F901F901895C6
:100320000F931F939FB7F89400911A0110911B012E
:1003300020911C0130911D0186B5A89B06C08F3FFE
:1003400021F00F5F1F4F2F4F3F4F9FBF322F212FA5
:10035000102F0027080F111D211D311D42E0000F35
:10036000111F221F331F4A95D1F7B801C9011F91F0
:100370000F9108958F929F92AF92BF92EF92FF924A
:100380004B015C010E9490017B0110C00E94900112
:100390006E197F09683E734048F081E0881A910821
:1003A000A108B10888E1E81A8CEFF80A81149104D9
:1003B000A104B10459F7FF90EF90BF90AF909F90C8
:1003C0008F900895789484B5826084BD84B58160EF
:1003D00084BD85B5826085BD85B5816085BDEEE64D
:1003E000F0E0808181608083E1E8F0E0108280812C
:1003F00082608083808181608083E0E8F0E080819A
:1004000081608083E1EBF0E0808184608083E0EBB9
:10041000F0E0808181608083EAE7F0E080818460A1
:1004200080838081826080838081816080838081FD
:10043000806880831092C10008958F929F92AF923E
:10044000BF92CF92DF92EF92FF924C017B015A0153
:10045000A60EB71EC12CD12C0DC0D7016D917D0108
:10046000D401ED91FC910190F081E02DC40109953A
:10047000C80ED91EEA14FB0481F7C601FF90EF9065
:10048000DF90CF90BF90AF909F908F900895DB0149
:100490000D900020E9F7AD0141505109461B570B63
:1004A000DC01ED91FC910280F381E02D0994DC01E7
:1004B000ED91FC910190F081E02D0994CF92DF92B3
:1004C000EF92FF927C016DE00E9457026C016AE09E
:1004D000C7010E9457029C012C0D3D1DC901FF90D0
:1004E000EF90DF90CF900895CF92DF92EF92FF923E
:1004F0007C010E9447026C01C7010E945E029601C6
:10050000280F391FC901FF90EF90DF90CF90089519
:100510000E94E2010E94870087E6E82E83E0F82E21
:100520000E949300E114F104D9F30E946703F8CF0D
:10053000FC0184859585FC01E05CFF4F20813181C1
:10054000FC01EE5BFF4F80819181281B390B2F73DB
:100550003327C9010895FC0184859585FC01E05C81
:10056000FF4F40815181FC01EE5BFF4F20813181C3
:100570004217530741F00190F081E02DE80FF91F79
:10058000208130E002C02FEF3FEFC9010895FC0148
:1005900084859585FC01E05CFF4F40815181FC0121
:1005A000EE5BFF4F208131814217530781F0A0811C
:1005B000B181A80FB91F8C91208131812F5F3F4FEE
:1005C0002F73332731832083282F30E002C02FEF91
:1005D0003FEFC9010895FC0186859785FC01E05C29
:1005E000FF4FDC01AE5BBF4F408151812D913C91AB
:1005F000119742175307C1F70895CF93DF93FC017A
:1006000086859785DC01A05CBF4F2D913C911197A9
:100610002F5F3F4F2F733327EC01CE5BDF4F4881B5
:10062000598124173507D9F30D90BC91A02DA80F3F
:10063000B91F6C93A685B785A05CBF4F11963C93FC
:100640002E93A689B7892C9181E090E0058C02C099
:10065000880F991F0A94E2F7282B2C9381E090E0F1
:10066000DF91CF91089508951F920F920FB60F92C8
:1006700011242F933F934F938F939F93EF93FF9367
:100680004091C6008091C2019091C30101968F7381
:1006900099272091C4013091C5018217930759F021
:1006A000E091C201F091C301EE57FE4F4083909359
:1006B000C3018093C201FF91EF919F918F914F9160
:1006C0003F912F910F900FBE0F901F9018958FE1C3
:1006D00091E00E949802892B11F00C943303089545
:1006E0001F920F920FB60F9211242F933F938F9367
:1006F0009F93EF93FF9320917E0130917F01809132
:100700008001909181012817390731F48091C1004F
:100710008F7D8093C10014C0E0918001F091810130
:10072000E25CFE4F208180918001909181010196D1
:100730008F73992790938101809380012093C60045
:10074000FF91EF919F918F913F912F910F900FBE4D
:100750000F901F901895CF92DF92EF92FF92CF9358
:10076000DF93EC016A017B01411581EE58076105B9
:100770007105F9F0EC89FD8981E090E00E8C02C0F2
:10078000880F991F0A94E2F7808360E079E08DE397
:1007900090E0A70196010E947B0421503109410994
:1007A00051095695479537952795211580E13807CA
:1007B00098F0EC89FD89108260E874E88EE190E0A1
:1007C000A70196010E947B0421503109410951097A
:1007D0005695479537952795E889F9893083EA89B1
:1007E000FB892083EE89FF89408181E090E09C01B4
:1007F0000A8C02C0220F331F0A94E2F7422B408377
:10080000EE89FF8940819C010B8C02C0220F331FAF
:100810000A94E2F7422B4083EE89FF8940819C01D4
:100820000C8C02C0220F331F0A94E2F7422B408344
:10083000EE89FF8920810D8C02C0880F991F0A94D0
:10084000E2F7809582238083DF91CF91FF90EF9034
:10085000DF90CF900895109222011092210188EE2E
:1008600093E0A0E0B0E08093230190932401A09353
:100870002501B093260189E091E0909320018093B7
:100880001F0182E891E090932C0180932B018EE36D
:1008900091E090932E0180932D0185EC90E0909350
:1008A000300180932F0184EC90E09093320180938B
:1008B000310180EC90E0909334018093330181EC1E
:1008C00090E0909336018093350186EC90E0909310
:1008D00038018093370184E08093390183E080936D
:1008E0003A0187E080933B0185E080933C0181E001
:1008F00080933D010895A1E21A2EAA1BBB1BFD01A6
:100900000DC0AA1FBB1FEE1FFF1FA217B307E407EE
:10091000F50720F0A21BB30BE40BF50B661F771F46
:10092000881F991F1A9469F7609570958095909526
:100930009B01AC01BD01CF010895EE0FFF1F059093
:0A094000F491E02D0994F894FFCF24
:10094A00647564650000000000FD021D029802C77C
:06095A0002AB02EB0200FB
:00000001FF
