:100000000C9468000C9490000C9490000C94900058
:100010000C9490000C9490000C9490000C94900020
:100020000C9490000C9490000C9490000C94900010
:100030000C9490000C9490000C9490000C94900000
:100040000C94FF070C9490000C94B80C0C94F40CD6
:100050000C9490000C9490000C9490000C949000E0
:100060000C9490000C949000000000070002010026
:100070000003040600000000000000000102040864
:100080001020408001020408102001020408102002
:10009000040404040404040402020202020203032E
:1000A00003030303000000002300260029000000D2
:1000B0000000250028002B0000000000240027007D
:1000C0002A00E707180AAF0D710F51135C1367136D
:1000D00011241FBECFEFD8E0DEBFCDBF11E0A0E0FE
:1000E000B1E0ECEDF7E202C005900D92AE38B10739
:1000F000D9F712E0AEE8B1E001C01D92A339B10713
:10010000E1F710E0C0EDD0E004C02297FE010E94AC
:10011000CD13C23CD107C9F70E940C0C0C94EC1310
:100120000C9400008F929F92AF92BF920F931F93F7
:100130004B015C0120E030E040E05FE40E942404D9
:1001400087FD0EC020E030E040E05FE4C501B4016F
:100150000E943D020E940B058B019C01305806C095
:10016000C501B4010E940B058B019C01B801C901B6
:100170001F910F91BF90AF909F908F900895A0E036
:10018000B0E0E5ECF0E00C9498133C01CB01EA01FF
:10019000D3012C91223008F43EC1FB013081323072
:1001A00008F436C1243071F4343009F034C11196AA
:1001B0002C918181281709F42EC1BAE06B2EB1E091
:1001C0007B2E29C1343009F423C1323091F422301E
:1001D00009F021C128E0F301DA0101900D922A957E
:1001E000E1F7DB0111968C91F301918189238983D9
:1001F00011C1223009F40CC1D3011296ED91FC918A
:100200001397DB0112966D917C911397D30114968D
:100210000D911D912D913C911797DC011496CD9075
:10022000DD90ED90FC901797AF01461B570BDA015C
:1002300057FF04C0AA27BB27A41BB50BA032B105EA
:100240000CF065C0141615067CF5B701A6010A2E40
:1002500004C076956795579547950A94D2F7812CF7
:10026000912C5401839404C0880C991CAA1CBB1CBB
:10027000AA95D2F7B1E08B1A9108A108B1088C2099
:100280009D20AE20BF20C12CD12C7601C3948114B7
:100290009104A104B10419F4C12CD12C7601C42A13
:1002A000D52AE62AF72A3EC0452BE1F1EA0FFB1FCB
:1002B000B901A8010A2E04C0769567955795479510
:1002C0000A94D2F7812C912C5401839404C0880C99
:1002D000991CAA1CBB1CAA95D2F7A1E08A1A910806
:1002E000A108B10880229122A222B32201E010E0ED
:1002F00020E030E081149104A104B10419F400E07D
:1003000010E09801042B152B262B372B0BC06E17F2
:100310007F0724F4C12CD12C760104C0FB0100E03E
:1003200010E09801D30111964C91DC0111968C914B
:10033000481709F442C0442349F0D701C601801B85
:10034000910BA20BB30B8C019D0104C00C191D096C
:100350002E093F0937FD04C01982FB83EA830BC0D5
:1003600081E08983FB83EA83309520951095019580
:100370001F4F2F4F3F4F0C831D832E833F830DC094
:10038000880F991FAA1FBB1F8C839D83AE83BF83D9
:100390008A819B8101979B838A838C819D81AE8119
:1003A000BF818C019D0101501109210931090F3FC5
:1003B0001F4F2F4F3F4320F30BC04983FB83EA833A
:1003C0000C0D1D1D2E1D3F1D0C831D832E833F8391
:1003D00083E088830C811D812E813F8137FF1AC005
:1003E000D901C80181709927AA27BB27369527957F
:1003F00017950795802B912BA22BB32B8C839D8374
:10040000AE83BF838A819B8101969B838A8302C0CE
:100410003C0101C03E01C301CDB7DEB7EEE00C9454
:10042000B413A0E2B0E0E7E1F2E00C94A4136D8F06
:100430007E8F8F8F98A3298F3A8F4B8F5C8FBE0151
:100440006F5E7F4FCE014D960E949106BE01675FA1
:100450007F4FCE0149960E949106AE014F5F5F4FDC
:10046000BE01675F7F4FCE0141960E94BF000E9490
:10047000D005A096E2E00C94C013A0E2B0E0E3E463
:10048000F2E00C94A4136D8F7E8F8F8F98A3298F29
:100490003A8F4B8F5C8FBE016F5E7F4FCE014D96C2
:1004A0000E949106BE01675F7F4FCE0149960E9470
:1004B00091068A8591E089278A87AE014F5F5F4F59
:1004C000BE01675F7F4FCE0141960E94BF000E9430
:1004D000D005A096E2E00C94C013A0E2B0E0E3E700
:1004E000F2E00C9496136D8F7E8F8F8F98A3298FD7
:1004F0003A8F4B8F5C8FBE016F5E7F4FCE014D9662
:100500000E949106BE01675F7F4FCE0149960E940F
:1005100091069989923008F412C08985823008F4D6
:100520001AC0943021F4823009F4B4C008C0843079
:1005300021F4923009F4AEC00EC0923051F481E043
:100540002A899A85291301C080E08A8BCE014196C1
:10055000A3C0823051F481E02A899A85291301C011
:1005600080E08A87CE01099697C08D889E88AF88E3
:10057000B88C0D851E852F853889E0E2F0E080E09B
:1005800090E0DC01C12CD12C760140E050E0BA01B2
:1005900080FE18C0400F511F621F731F8C0D9D1DE0
:1005A000AE1DBF1D412C512C320143944017510701
:1005B0006207730718F0412C512C3201840D951DF0
:1005C000A61DB71DCC0CDD1CEE1CFF1C37FF02C0A6
:1005D0006894C0F8000F111F221F331FB694A79410
:1005E000979487943197A1F62B893C89EB85FC85FC
:1005F0002E0F3F1F2E5F3F4F3C832B8321E0EA8964
:100600003A85E31301C020E02A83EB81FC810CC012
:1006100080FF05C076956795579547957068B695A4
:10062000A795979587953196B7FDF2CF9F010CC09E
:10063000880F991FAA1FBB1F77FD8160440F551FAC
:10064000661F771F215031090097A105E0E4BE071E
:1006500078F32B833C838C019D010F771127222790
:100660003327003411052105310559F487FD09C0F0
:10067000452B462B472B29F0805C9F4FAF4FBF4F38
:1006800080788D839E83AF83B88783E08983CE0192
:10069000019602C08AE091E00E94D005A096E0E1B8
:1006A0000C94B213A8E1B0E0E8E5F3E00C949E13DB
:1006B0006D8B7E8B8F8B988F298B3A8B4B8B5C8BC2
:1006C000BE01675F7F4FCE0145960E949106BE0135
:1006D0006F5F7F4FCE0141960E94910699859230BF
:1006E00008F475C08981823008F474C02A853A8183
:1006F00023272A87943011F0923019F4981367C099
:100700006CC0843039F41D861E861F86188A1C86AC
:100710001B8604C0823029F484E08987CE010996C3
:100720005EC08B859C852B813C81821B930B9C87B3
:100730008B874D855E856F857889CD80DE80EF80E3
:10074000F8844C155D056E057F0538F4440F551F80
:10075000661F771F01979C878B87EFE1F0E000E031
:1007600010E020E030E480E090E0DC014C155D0515
:100770006E057F0540F0802B912BA22BB32B4C19DB
:100780005D096E097F093695279517950795440FE2
:10079000551F661F771F319749F78C019D010F7711
:1007A000112722273327003411052105310559F47B
:1007B00087FD09C0452B462B472B29F0805C9F4FB6
:1007C000AF4FBF4F80788D879E87AF87B88BCE01A4
:1007D000099605C0CE01019602C08AE091E00E9410
:1007E000D0056896E8E00C94BA13A8E1B0E0EBEF0E
:1007F000F3E00C94A4136D8B7E8B8F8B988F298BD9
:100800003A8B4B8B5C8BBE01675F7F4FCE01459669
:100810000E949106BE016F5F7F4FCE0141960E94FC
:1008200091068985823058F08981823040F0BE017E
:100830006F5F7F4FCE0109960E94000701C08FEFC6
:100840006896E2E00C94C013A8E1B0E0EAE2F4E0BC
:100850000C94A4136D8B7E8B8F8B988F298B3A8B86
:100860004B8B5C8BBE01675F7F4FCE0145960E942C
:100870009106BE016F5F7F4FCE0141960E949106A7
:100880008985823058F08981823040F0BE016F5FE7
:100890007F4FCE0109960E94000701C08FEF689636
:1008A000E2E00C94C013A8E1B0E0E9E5F4E00C94B8
:1008B000A4136D8B7E8B8F8B988F298B3A8B4B8BF0
:1008C0005C8BBE01675F7F4FCE0145960E9491060B
:1008D000BE016F5F7F4FCE0141960E9491068985D0
:1008E000823058F08981823040F0BE016F5F7F4FC7
:1008F000CE0109960E94000701C081E06896E2E0FF
:100900000C94C013A8E1B0E0E8E8F4E00C94A41360
:100910006D8B7E8B8F8B988F298B3A8B4B8B5C8B5F
:10092000BE01675F7F4FCE0145960E949106BE01D2
:100930006F5F7F4FCE0141960E949106898582307C
:1009400040F081E090E02981223028F080E090E0C2
:1009500002C081E090E06896E2E00C94C013A8E049
:10096000B0E0E5EBF4E00C94A21323E029838B01C3
:100970009C01002737FD0395112722273327402F9D
:100980000A83611571058105910519F482E0898357
:1009900035C02EE130E03C832B83442371F0611598
:1009A0007105810520E8920771F100271127980150
:1009B000061B170B280B390B02C08B019C01C901C8
:1009C000B8010E94D1130197181619062CF00D8357
:1009D0001E832F83388712C0082E04C0000F111FFA
:1009E000221F331F0A94D2F70D831E832F8338876B
:1009F0002EE130E0281B390B3C832B83CE0101967E
:100A00000E94D00504C060E070E080E09FEC289672
:100A1000E4E00C94BE13ACE0B0E0E1E1F5E00C944E
:100A2000A21369877A878B879C87BE016F5F7F4F90
:100A3000CE0109960E9491068981823091F182301F
:100A400080F1843041F48A81882331F100E010E0A4
:100A500020E030E829C02B813C8137FD22C02F31B6
:100A600031058CF78EE190E0821B930B0D811E8186
:100A70002F81388504C036952795179507958A9557
:100A8000D2F78A81882381F03095209510950195C1
:100A90001F4F2F4F3F4F08C00FEF1FEF2FEF3FE7C4
:100AA00003C000E010E09801B801C9012C96E4E011
:100AB0000C94BE13A8E0B0E0E0E6F5E00C949E13C1
:100AC0008B019C011A82611571058105910519F44C
:100AD00082E089835DC083E089834EE150E05C83DE
:100AE0004B83C901B8010E94D113019797FF39C008
:100AF000EE27FF27E81BF90B41E050E060E070E0D3
:100B00000E2E04C0440F551F661F771F0A94D2F79C
:100B10004150510961097109402351236223732314
:100B2000C12CD12C7601C394452B462B472B19F4AD
:100B3000C12CD12C760104C03695279517950795C1
:100B4000EA95D2F70C291D292E293F290D831E83F2
:100B50002F8338872EE130E0281B390B3C832B8311
:100B600017C0009729F40D831E832F83388710C088
:100B7000082E04C0000F111F221F331F0A94D2F742
:100B80000D831E832F833887481B590B5C834B834F
:100B9000CE0101960E94D0052896E8E00C94BA1385
:100BA0000F931F93CF93FC01448155816681778118
:100BB000C1818081823020F460618FEF90E0A3C01A
:100BC000843009F49BC0823009F492C0411551056C
:100BD0006105710509F48FC02281338122388FEFBE
:100BE00038070CF057C0E2E8FFEFE21BF30BEA31E5
:100BF000F10564F58A019B010E2E04C036952795F8
:100C0000179507950A94D2F781E090E0A0E0B0E054
:100C100004C0880F991FAA1FBB1FEA95D2F701973E
:100C2000A109B10984239523A623B72341E050E00D
:100C300060E070E0892B8A2B8B2B19F440E050E0A8
:100C4000BA01402B512B622B732B03C040E050E0C4
:100C5000BA01DB01CA018F779927AA27BB27803405
:100C60009105A105B10539F447FF09C0405C5F4F0C
:100C70006F4F7F4F04C0415C5F4F6F4F7F4F81E0EC
:100C800090E041155105610520E4720748F580E0C8
:100C900090E026C0203831058CF5DB01CA018F7742
:100CA0009927AA27BB2780349105A105B10539F4FE
:100CB00047FF09C0405C5F4F6F4F7F4F04C0415CEE
:100CC0005F4F6F4F7F4F77FD04C0C90181589F4F21
:100CD00007C07695679557954795C90180589F4FEE
:100CE00097E076956795579547959A95D1F70BC0FC
:100CF00080E090E005C080E090E005C08FEF90E0DC
:100D000040E050E0BA01982F9695C0FB97F9362F36
:100D100080FB37F9642F752F832FCF911F910F918F
:100D20000895CF92DF92EF92DC01FB01CC901196F7
:100D3000DC90119712968C9112973FE7E32EE822F0
:100D40006E2DA60170E0982F991F9927991F139671
:100D50002C91822F880F892B90E027FB222720F9E6
:100D60002183009729F5411551056105710511F49D
:100D700082E027C082E89FEF9383828327E0440FBD
:100D8000551F661F771F2A95D1F783E0808309C01E
:100D9000440F551F661F771F8281938101979383AC
:100DA000828341155105610580E4780788F320C0EE
:100DB0008F3F910579F4411551056105710519F4CD
:100DC00084E0808319C0E4FE03C081E0808310C00A
:100DD00010820EC08F5791099383828383E08083B2
:100DE00087E0440F551F661F771F8A95D1F77064FF
:100DF0004483558366837783EF90DF90CF90089587
:100E0000CF93FC01DB019081923008F452C08C91A9
:100E1000823008F44EC0943071F4843039F4119665
:100E20002C9130E08181281B310948C081818823C1
:100E300009F43FC03BC0843029F411968C91811194
:100E400038C034C0923019F48230B9F735C08230DE
:100E500069F3C18111968C911197C8131DC022812D
:100E6000338112968D919C911397821793070CF4FE
:100E700013C0281739070CF417C0448155816681C7
:100E8000778114968D919D910D90BC91A02D841722
:100E90009507A607B70718F4C11108C00AC048177C
:100EA00059076A077B0740F4C11103C02FEF3FEFDA
:100EB00005C021E030E002C020E030E0C901CF9160
:100EC0000895CF93DF9300D000D000D0CDB7DEB728
:100ED00040E855E260E070E08CEB91E00E942F0D5D
:100EE00060E071E0CE0101960E94080AAE014F5FFA
:100EF0005F4F64E071E083E692E00E94330F8EE87A
:100F000091E00E94CF1162E171E08CEB91E00E94D0
:100F1000610A44E061E08BE991E00E94F3108111E5
:100F200007C06AE271E08CEB91E00E94800A0AC07F
:100F300061E471E08CEB91E00E94800A61E089E05D
:100F40000E941C0926960FB6F894DEBF0FBECDBFD7
:100F5000DF91CF9108958F929F92AF92BF9260E000
:100F600089E00E94540960E08EE891E00E949912A5
:100F70004B015C019B01AC010E948204882339F083
:100F800066E571E08CEB91E00E94800A08C022E0E7
:100F900030E0B501A4018CEB91E00E94F80B20E059
:100FA00030E040EE51E4C501B4010E94F50318168B
:100FB00024F461E089E00E94540968EE73E080E067
:100FC00090E0BF90AF909F908F900C9485080F9306
:100FD00000E020E040E060E087EA91E00E94FC0948
:100FE0001092A0011092A1011092A4011092A601EA
:100FF00046E167E08EE891E00F910C94C9111F92D1
:101000000F920FB60F9211242F933F938F939F93BC
:10101000AF93BF938091AD019091AE01A091AF01CC
:10102000B091B0013091B501232F2D5F2D3720F401
:101030000196A11DB11D05C0232F2A570296A11D9F
:10104000B11D2093B5018093AD019093AE01A093A3
:10105000AF01B093B0018091B1019091B201A09124
:10106000B301B091B4010196A11DB11D8093B101EE
:101070009093B201A093B301B093B401BF91AF912B
:101080009F918F913F912F910F900FBE0F901F90C6
:1010900018950F931F938FB7F8940091AD0110919D
:1010A000AE012091AF013091B0018FBFB801C901ED
:1010B0001F910F9108950F931F939FB7F89400917C
:1010C000B1011091B2012091B3013091B40186B504
:1010D000A89B06C08F3F21F00F5F1F4F2F4F3F4F40
:1010E0009FBF322F212F102F0027080F111D211D08
:1010F000311D42E0000F111F221F331F4A95D1F707
:10110000B801C9011F910F9108958F929F92AF92DC
:10111000BF92EF92FF924B015C010E945B087B0142
:1011200010C00E945B086E197F09683E734048F04A
:1011300081E0881A9108A108B10888E1E81A8CEFCB
:10114000F80A81149104A104B10459F7FF90EF90BB
:10115000BF90AF909F908F900895019739F0880FBE
:10116000991F880F991F02970197F1F708957894B6
:1011700084B5826084BD84B5816084BD85B582609C
:1011800085BD85B5816085BDEEE6F0E0808181603A
:101190008083E1E8F0E0108280818260808380813A
:1011A00081608083E0E8F0E0808181608083E1EB12
:1011B000F0E0808184608083E0EBF0E080818160FA
:1011C0008083EAE7F0E080818460808380818260B0
:1011D0008083808181608083808180688083109299
:1011E000C1000895833069F028F48130A1F0823085
:1011F00011F514C08630B1F08730C1F08430D9F4D5
:1012000004C0809180008F7703C0809180008F7D23
:1012100080938000089584B58F7702C084B58F7D58
:1012200084BD08958091B0008F7703C08091B00095
:101230008F7D8093B0000895CF93DF9390E0FC0101
:10124000E458FF4F4491FC01E057FF4F84918823FD
:1012500041F190E0880F991FFC01E854FF4F259160
:101260003491D90182559F4FFC0185919491C82FEB
:10127000D92F9FB7F8948C91611106C040958423B3
:101280008C938881842308C0623041F4242F2095F8
:1012900082238C938881842B888302C0842B8C9337
:1012A0009FBFDF91CF9108950F931F93CF93DF934B
:1012B0001F92CDB7DEB7282F30E0F901E859FF4F74
:1012C0008491F901E458FF4F1491F901E057FF4F61
:1012D00004910023D1F0882321F069830E94F20851
:1012E0006981E02FF0E0EE0FFF1FE255FF4F85917F
:1012F0009491DC019FB7F8948C91611103C0109513
:10130000812301C0812B8C939FBF0F90DF91CF91E0
:101310001F910F910895CF93DF93282F30E0F901AB
:10132000E859FF4F8491F901E458FF4FD491F90136
:10133000E057FF4FC491CC2389F081110E94F2083D
:10134000EC2FF0E0EE0FFF1FEC55FF4F85919491CD
:10135000DC018C918D2321E030E011F420E030E0BD
:10136000C901DF91CF9108956F927F928F929F92E2
:10137000AF92BF92CF92DF92EF92FF924C015B014E
:10138000E12CF12CC12CD12CF401EE0DFF1D4AE013
:1013900050E06281C5010E94FD0A3C016EE2C50178
:1013A0000E94630A860D971DC80ED91E8FEFE81A9A
:1013B000F80AE3E0EE16F10439F74AE050E0F401F0
:1013C0006581C5010E94FD0AC80ED91EC601FF90A5
:1013D000EF90DF90CF90BF90AF909F908F907F90D5
:1013E0006F90089522E731E0FC013183208312825F
:1013F00013821482158208950F93FC0182E791E015
:101400009183808362834383248305830F910895AE
:1014100022E731E0FC0131832083FB0140815181CF
:1014200062817381FC0142835383648375830895D1
:1014300082E791E09093B7018093B6011092B801D2
:101440001092B9011092BA011092BB0108958F92C7
:101450009F92AF92BF92CF92DF92EF92FF924C0198
:101460007B015A01A60EB71EC12CD12C0DC0D7018D
:101470006D917D01D401ED91FC910190F081E02D01
:10148000C4010995C80ED91EEA14FB0481F7C601F0
:10149000FF90EF90DF90CF90BF90AF909F908F9094
:1014A0000895DB010D900020E9F7AD01415051098D
:1014B000461B570BDC01ED91FC910280F381E02D7E
:1014C00009940C94510ADC01ED91FC910190F0819A
:1014D000E02D0994CF92DF92EF92FF927C016DE0B4
:1014E0000E94630A6C016AE0C7010E94630A9C01C2
:1014F0002C0D3D1DC901FF90EF90DF90CF90089516
:10150000CF92DF92EF92FF927C010E94510A6C0110
:10151000C7010E946A0A9601280F391FC901FF906E
:10152000EF90DF90CF9008955F926F927F928F92AD
:101530009F92AF92BF92CF92DF92EF92FF920F9362
:101540001F93CF93DF93CDB7DEB7A1970FB6F89473
:10155000DEBF0FBECDBF3C016A017B01522E19A236
:1015600081E0821710F08AE0582E8E010F5D1F4F28
:10157000852C912CA12CB12CC701B601A501940199
:101580000E9472138C2D529E801911240150110952
:101590008A3010F4805D01C0895CF80180836901A4
:1015A0007A01C114D104E104F10431F7B801C30197
:1015B0000E94510AA1960FB6F894DEBF0FBECDBFB0
:1015C000DF91CF911F910F91FF90EF90DF90CF901F
:1015D000BF90AF909F908F907F906F905F90089595
:1015E0002115310541F4DC01ED91FC910190F08170
:1015F000E02D642F09940C94940A9A01462F50E030
:1016000060E070E00C94F00A8F929F92AF92BF92CC
:10161000CF92DF92EF92FF927C014A015B0121158C
:10162000310581F4DC01ED91FC910190F081E02D18
:10163000642FFF90EF90DF90CF90BF90AF909F907E
:101640008F9009942A30310519F477FD0EC02AE0F5
:10165000B501A401C701FF90EF90DF90CF90BF903C
:10166000AF909F908F900C94940A6DE20E94630A51
:101670006C0144275527BA01481959096A097B09A1
:101680002AE0C7010E94940A9C012C0D3D1DC9014E
:10169000FF90EF90DF90CF90BF90AF909F908F9092
:1016A00008954F925F926F927F928F929F92AF9226
:1016B000BF92CF92DF92EF92FF92CF93DF932C01F4
:1016C0004A015B01C22F20E030E0A901C501B4014D
:1016D0000E94530487FF0AC06DE2C2010E94630AA0
:1016E0003C01B7FAB094B7F8B09402C0612C712CE9
:1016F000D0E060E070E080E09FE307C020E030E0F1
:1017000040E251E40E945203DF5FDC13F7CF262F43
:10171000372F482F592FC501B4010E9411024B01E8
:101720005C01792D9B2D0E9492006B017C010E942F
:101730005A059B01AC01682D792D8A2D9B2D0E94A5
:101740003D02D62FB72EA82E992E2AE0A601B7016A
:10175000C2010E94940A680E791ECC23B9F168E296
:1017600071E0C2010E94510A680E791E2FC020E06C
:1017700030E040E251E46D2F7B2D8A2D992D0E949F
:101780006D026B017C017D2D9F2D0E940B054B018D
:10179000AA2497FCA094BA2C2AE030E0B501A40159
:1017A000C2010E94040B680E791EC501B4010E949B
:1017B000AF049B01AC016C2D7D2D8E2D9F2D0E94C1
:1017C0003D02D62FB72EA82E992EC150C111CFCFD2
:1017D000C301DF91CF91FF90EF90DF90CF90BF904A
:1017E000AF909F908F907F906F905F904F900895F3
:1017F000CF92DF92EF92FF927C010E94510B6C011D
:10180000C7010E946A0A9601280F391FC901FF907B
:10181000EF90DF90CF9008950E94B7080E94610773
:101820008BEEE82E8CE0F82E0E94AB07E114F10459
:10183000D9F30E94EB0CF8CFFC0184859585FC015F
:10184000E05CFF4F20813181FC01EE5BFF4F808126
:101850009181281B390B2F733327C9010895FC018F
:1018600084859585FC01E05CFF4F40815181FC013E
:10187000EE5BFF4F208131814217530741F0019009
:10188000F081E02DE80FF91F208130E002C02FEF3A
:101890003FEFC9010895FC0184859585FC01E05C5A
:1018A000FF4F40815181FC01EE5BFF4F2081318170
:1018B0004217530781F0A081B181A80FB91F8C9105
:1018C000208131812F5F3F4F2F7333273183208356
:1018D000282F30E002C02FEF3FEFC9010895FC012F
:1018E00086859785FC01E05CFF4FDC01AE5BBF4F56
:1018F000408151812D913C91119742175307C1F7B7
:101900000895CF93DF93FC0186859785DC01A05C69
:10191000BF4F2D913C9111972F5F3F4F2F7333276E
:10192000EC01CE5BDF4F4881598124173507D9F38D
:101930000D90BC91A02DA80FB91F6C93A685B785FB
:10194000A05CBF4F11963C932E93A689B7892C912A
:1019500081E090E0058C02C0880F991F0A94E2F79D
:10196000282B2C9381E090E0DF91CF91089508958A
:101970001F920F920FB60F9211242F933F934F9304
:101980008F939F93EF93FF934091C60080915F02E6
:101990009091600201968F73992720916102309196
:1019A00062028217930759F0E0915F02F0916002A2
:1019B000E15EFD4F40839093600280935F02FF9150
:1019C000EF919F918F914F913F912F910F900FBE6B
:1019D0000F901F9018958CEB91E00E941C0C892BA6
:1019E00011F00C94B70C08951F920F920FB60F923E
:1019F00011242F933F938F939F93EF93FF93209105
:101A00001B0230911C0280911D0290911E0228172A
:101A1000390731F48091C1008F7D8093C10014C0DB
:101A2000E0911D02F0911E02E552FE4F208180914F
:101A30001D0290911E0201968F73992790931E02AA
:101A400080931D022093C600FF91EF919F918F918B
:101A50003F912F910F900FBE0F901F901895CF922E
:101A6000DF92EF92FF92CF93DF93EC016A017B014B
:101A7000411581EE580761057105F9F0EC89FD8982
:101A800081E090E00E8C02C0880F991F0A94E2F763
:101A9000808360E079E08DE390E0A70196010E94E9
:101AA00072132150310941095109569547953795CF
:101AB0002795211580E1380798F0EC89FD8910827F
:101AC00060E874E88EE190E0A70196010E9472132D
:101AD0002150310941095109569547953795279568
:101AE000E889F9893083EA89FB892083EE89FF89B7
:101AF000408181E090E09C010A8C02C0220F331FDC
:101B00000A94E2F7422B4083EE89FF8940819C01D1
:101B10000B8C02C0220F331F0A94E2F7422B408342
:101B2000EE89FF8940819C010C8C02C0220F331F7B
:101B30000A94E2F7422B4083EE89FF8920810D8CC5
:101B400002C0880F991F0A94E2F780958223808350
:101B5000DF91CF91FF90EF90DF90CF90089510929A
:101B6000BF011092BE0188EE93E0A0E0B0E0809348
:101B7000C0019093C101A093C201B093C30188E753
:101B800091E09093BD018093BC018FE192E090932E
:101B9000C9018093C8018BED91E09093CB018093B4
:101BA000CA0185EC90E09093CD018093CC0184EC48
:101BB00090E09093CF018093CE0180EC90E09093E1
:101BC000D1018093D00181EC90E09093D301809378
:101BD000D20186EC90E09093D5018093D40184E00B
:101BE0008093D60183E08093D70187E08093D8016A
:101BF00085E08093D90181E08093DA01089544E083
:101C000050E0BC0181E090E00C94EA0F44E050E029
:101C1000BC0185E090E00C94EA0F44E050E0BC0188
:101C20008FE090E00C94EA0F6F927F928F929F92D8
:101C3000AF92BF92CF92DF92EF92FF920F931F93DA
:101C4000CF93DF9300D0CDB7DEB76C015A014901C5
:101C500081E792E069837A830E94AB0F46E050E00F
:101C600069817A8189E090E00E94EA0FC5010296BD
:101C70000E940D0EC80102960E94FF0DC701029638
:101C80000E94060EF4014281538164817581F60140
:101C900042835383648375830F900F90DF91CF91BC
:101CA0001F910F91FF90EF90DF90CF90BF90AF907A
:101CB0009F908F907F906F9008952F923F924F92B8
:101CC0005F926F927F928F929F92AF92BF92CF92CC
:101CD000DF92EF92FF920F931F93CF93DF93CDB7D5
:101CE000DEB76E970FB6F894DEBF0FBECDBF5C01B6
:101CF0004B013A012901180100E02FEF4FEF6FEF80
:101D0000CE0149960E94FC0982E791E09A8389837B
:101D1000CB8CDC8CED8CFE8CCB82DC82ED82FE8267
:101D200098878F83F101028113812481358109878E
:101D30001A872B873C879E878D87F201028113814A
:101D4000248135810F87188B298B3A8B9C8B8B8B49
:101D5000F30142815381648175814D8B5E8B6F8B62
:101D6000788FEE24E394F12CEC0EFD1E8E01095FBA
:101D70001F4F9E01235F3F4FAE014D5E5F4FB40189
:101D8000C5010E94140E6E960FB6F894DEBF0FBE0A
:101D9000CDBFDF91CF911F910F91FF90EF90DF901A
:101DA000CF90BF90AF909F908F907F906F905F90FB
:101DB0004F903F902F900895CF92DF92EF92FF9235
:101DC0000F931F93CF93DF93CDB7DEB768970FB60E
:101DD000F894DEBF0FBECDBFDB017901FA0142816D
:101DE0005381648175814D8B5E8B6F8B788F22E779
:101DF000C22E21E0D22EDA82C98221E0288F0D89FD
:101E00001E892F89388D0B831C832D833E83D886B2
:101E1000CF82F701028113812481358109871A87D6
:101E20002B873C87DE86CD864F87588B698B7A8BD4
:101E30008E010F5F1F4F9E01295F3F4FAE01435F31
:101E40005F4FBD010E945D0E68960FB6F894DEBF2D
:101E50000FBECDBFDF91CF911F910F91FF90EF90FB
:101E6000DF90CF9008950F931F93CF93DF93CDB75B
:101E7000DEB762970FB6F894DEBF0FBECDBFDB01B1
:101E8000FA0142815381648175814F87588B698B38
:101E90007A8BE2E7F1E0FA83E98321E02A8B0F8570
:101EA000188929893A890B831C832D833E83F887FF
:101EB000EF8349875A876B877C879E012F5F3F4F4F
:101EC000AE01495F5F4FBD010E94DC0E62960FB606
:101ED000F894DEBF0FBECDBFDF91CF911F910F9160
:101EE00008950F9300E020E040E060E08BE692E090
:101EF0000E94FC0983E692E00F910C94F2098EBDDA
:101F00000DB407FEFDCF8EB508952A9808952A9A3C
:101F100008951F93CF93DF9300D0CDB7DEB7182F6E
:101F20006A8399830E94850F80EF0E947F0F9981B9
:101F3000892F0E947F0F812F0E947F0F6A81862F39
:101F40000E947F0F0E94870F81E00F900F90DF911A
:101F5000CF911F910895EF92FF927C016CE271E0A6
:101F600080E090E00E9485080E943213229A60E887
:101F700080E090E00E94890F65E58BE190E00E948F
:101F8000890F65E58AE190E00E94890F80E090E486
:101F9000F7019183808380E090E69187808780E0DD
:101FA00098E49383828380E098E69387828780E039
:101FB00090E59583848380E090E79587848780E02F
:101FC00098E59783868380E098E797878687FF90D8
:101FD000EF9008958F929F92AF92BF92CF92DF922F
:101FE000EF92FF927C015A016B014A01880E991E03
:101FF00015C00E94850F80EF0E947F0F8F2D0E94D9
:102000007F0F8E2D0E947F0F8FEFE81AF80AF601DE
:1020100081916F010E947F0F0E94870FE814F904DD
:1020200041F7C501FF90EF90DF90CF90BF90AF9048
:102030009F908F9008958EBD0DB407FEFDCF08953B
:102040008FEF0E941B108EB5089561E0FC01848122
:102050000C94540960E0FC0184810C945409EF92C3
:10206000FF927C01FC0186818823D9F08FEF8EBD21
:102070004FEF04C00DB407FEFDCF4EBDF7018781C1
:1020800090859C012F5F3F4F30872783813092409E
:1020900088F30DB407FEFDCFC7010E942510F7019C
:1020A0001682FF90EF900895673028F026E1FC013A
:1020B000258380E008958DB560FD02C0663011F47F
:1020C0008E7F01C081608DBD8CB58C7F8CBD9CB531
:1020D00062FF02C082E001C080E066956170692BFA
:1020E000682B6CBD81E00895CF92DF92EF92FF9252
:1020F0007B010E9449086B010E9420108F3F49F02C
:102100000E9449086C197D096E157F05A8F380E0CF
:1021100001C081E0FF90EF90DF90CF900895CF92C3
:10212000DF92EF92FF921F93CF93DF9300D000D006
:10213000CDB7DEB77C01162F29833A834B835C83AE
:102140000E942F10C7010E942A106CE271E0C701A3
:102150000E947410812F80640E941B1088E1C82E99
:10216000D12C5C814B813A812981DA01C9010C2C87
:1021700004C0B695A795979587950A94D2F72983B9
:102180003A834B835C830E941B1088E0C81AD108F5
:1021900029813A814B815C81E8EFCE16EFEFDE06B4
:1021A00021F7112321F0183021F08FEF03C085E9CA
:1021B00001C087E80E941B1010E00E942010F70168
:1021C000828787FF04C01F3F11F01F5FF6CF0F907B
:1021D0000F900F900F90DF91CF911F91FF90EF9094
:1021E000DF90CF9008958F929F92AF92BF92CF923F
:1021F000DF92EF92FF92CF93DF937C01C62FFC0119
:10220000138611861682158244830E9449086B0149
:1022100061E0F70184810E941C09C7010E9425101A
:1022200060E08CE00E941C0961E08BE00E941C09C8
:1022300061E08DE00E941C0961E08AE00E941C09B7
:1022400061E08AE00E94540983E58CBD8DB58E7FE4
:102250008DBDDAE08FEF0E941B10D150D9F7C70176
:102260000E942A1009C00E9449086C197D09613D2D
:10227000774010F081E05CC020E030E0A90160E030
:10228000C7010E948F10D82FF7018287813059F73C
:102290002AEA31E040E050E068E0C7010E948F1078
:1022A00082FF03C0F701D3870EC0D4E00E94201044
:1022B000F7018287D150D1F78A3A11F082E039C014
:1022C00082E0F7018387F7018385823031F4812C26
:1022D000912CA12C90E4B92E0DC0812C912C54018D
:1022E00009C00E9449086C197D09613D774010F0D2
:1022F00088E01EC020E030E0A90167E3C7010E942A
:102300008F10A501940169E2C7010E948F10F701A7
:1023100082878111E6CF83858230D9F420E030E0D6
:10232000A9016AE3C7010E948F10882321F086E08B
:10233000F70185831FC00E942010807C803C19F427
:1023400083E0F70183870E9420100E9420100E94E2
:102350002010C7010E9425106C2FC701DF91CF917B
:10236000FF90EF90DF90CF90BF90AF909F908F90B5
:102370000C945410C7010E94251080E0DF91CF918A
:10238000FF90EF90DF90CF90BF90AF909F908F9095
:102390000895FC016683478381E084870895EF9266
:1023A000FF927C0160E0FC0186810E941C0961E0D3
:1023B000F70186810E945409F70110861186128662
:1023C0001386FF90EF900895CF92DF92EF92FF92E5
:1023D0000F931F93CF937C0161E0FC0186810E94E3
:1023E00054096AEF70E080E090E00E9485080E9446
:1023F0004908F7010085118522853385601771072B
:102400008207930720F41086118612861386F7013F
:102410002485211111C00085118522853385DC01B9
:10242000CB01801B910BA20BB30B803D9740A10504
:10243000B10510F481E075C0F70114860E944908C7
:10244000F7016087718782879387148213821282D3
:102450001182108261E086810E941C0960E0F70110
:1024600086810E94540964E170E080E090E00E945F
:102470008508F89461E0F70186810E94540988E29A
:1024800090E00E94AD0860E0F70186810E941C097F
:1024900010E0C0E081E008C00F5F81E090E00E94A2
:1024A000AD080F3F21F40AC000E0C82ED12CF7017F
:1024B00086810E948B098C159D0571F3F701868139
:1024C0000E948B090F3FB1F0143088F010FD0FC04F
:1024D0009C2F969596959695F701E90FF11D9081A1
:1024E000990F073008F401C091609083CF5F1F5FA0
:1024F0001535D1F67894C83298F0F701248130E090
:102500004081818190E0840F911D4281840F911D53
:102510004381840F911D99272817390709F48ACF21
:1025200080E0CF911F910F91FF90EF90DF90CF90BF
:102530000895CF92DF92EF92FF920F931F93CF9364
:10254000DF937C01C62F0E94E411882309F477C031
:10255000F70187818B3039F008F471C085518230E2
:1025600008F06DC01DC0F701628170E080E090E06E
:102570000E945A05B62FA72FF82FE92F462F572F65
:10258000682F792FCB01BA01CC2309F462C020E077
:1025900030E040E151E46B2F7A2F8F2F9E2F37C010
:1025A000F701D2816D2F6F7770E080E090E00E949C
:1025B000AF0420E030E040E853E40E946D026B017C
:1025C0008C01F701638170E080E090E00E94AF042D
:1025D0009B01AC016C2D7D2D802F912F0E9411024B
:1025E00020E030E040E251E40E945203472F382FB0
:1025F000292F862F942FA32FB22FBC01CD01D7FDF9
:102600009058CC2331F120E030E040E151E40E94C9
:102610006D0220E030E040EA50E40E94520320E0E6
:1026200030E040E052E40E941102472F382F292F5A
:10263000862F942FA32FB22FBC01CD010AC064E8CE
:1026400071E08CEB91E00E94610A60E070E080EC48
:102650009FE7DF91CF911F910F91FF90EF90DF9057
:10266000CF90089561E08DE00E941C0961E08BE04D
:102670000E941C0961E08AE00E941C0960E08DE074
:102680000E94540960E08BE00E94540961E08AE0F6
:102690000E9454098CB580618CBD8CB580648CBD62
:1026A00008950F9300E020E040E060E081E892E0D0
:1026B0000E94FC090F9108950F9300E020E040E094
:1026C00060E087E892E00E94FC090F9108950F9363
:1026D00000E020E040E060E08DE892E00E94FC092C
:1026E0000F910895A1E21A2EAA1BBB1BFD010DC07C
:1026F000AA1FBB1FEE1FFF1FA217B307E407F507B2
:1027000020F0A21BB30BE40BF50B661F771F881F8D
:10271000991F1A9469F760957095809590959B0123
:10272000AC01BD01CF0108952F923F924F925F926D
:102730006F927F928F929F92AF92BF92CF92DF92D1
:10274000EF92FF920F931F93CF93DF93CDB7DEB736
:10275000CA1BDB0B0FB6F894DEBF0FBECDBF0994CA
:102760002A88398848885F846E847D848C849B8421
:10277000AA84B984C884DF80EE80FD800C811B812F
:10278000AA81B981CE0FD11D0FB6F894DEBF0FBE5E
:10279000CDBFED010895EE0FFF1F0590F491E02DE0
:1027A00009940E94DA1384FF0895CB010E94DA1382
:1027B000805F0895AA27992329F4A85F982B11F424
:1027C00080E10895903118F4AD5F9295A395990F2B
:0C27D000E8F78A2F99270895F894FFCFAE
:1027DC000A0A0F4790A2DA0D69B30000000000004E
:1027EC000000496E697469616C697A696E6720537F
:1027FC004420636172642E2E2E00696E69746961C7
:10280C006C697A6174696F6E206661696C656421AC
:10281C0000696E697469616C697A6174696F6E20A4
:10282C00646F6E652E004661696C656420746F2060
:10283C00726561642066726F6D204448540000001C
:10284C000000B40900000000810C270A1C0C4B0C82
:0E285C002F0C6F0C52656164206661696C0080
:00000001FF
