:100000000C945D000C947A000C947A000C947A00A5
:100010000C947A000C947A000C947A000C948F065D
:100020000C947A000C947A000C947A000C947A0068
:100030000C947A000C947A000C947A000C947A0058
:100040000C9486030C947A000C947A000C947A0039
:100050000C947A000C947A000C947A000C947A0038
:100060000C947A000C947A00020000000700020150
:10007000000003040600000000000000000102046C
:10008000081020408001020408102001020408101A
:100090002004040404040404040202020202020311
:1000A000030303030300000000250028002B0000C9
:1000B000000000240027002A000011241FBECFEFFB
:1000C000D8E0DEBFCDBF11E0A0E0B1E0E4ECF0E1AC
:1000D00002C005900D92AA32B107D9F711E0AAE249
:1000E000B1E001C01D92A834B107E1F70E94EB0610
:1000F0000C9460080C940000A0E2B0E0E2E8F0E0AC
:100100000C9410086D8F7E8F8F8F98A3298F3A8F54
:100110004B8F5C8FBE016F5E7F4FCE014D960E946C
:10012000CD02BE01675F7F4FCE0149960E94CD028E
:100130009989923008F412C08985823008F41AC077
:10014000943021F4823009F4B4C008C0843021F422
:10015000923009F4AEC00EC0923051F481E02A8989
:100160009A85291301C080E08A8BCE014196A3C0F5
:10017000823051F481E02A899A85291301C080E0F8
:100180008A87CE01099697C08D889E88AF88B88CE3
:100190000D851E852F853889E0E2F0E080E090E053
:1001A000DC01C12CD12C760140E050E0BA0180FE88
:1001B00018C0400F511F621F731F8C0D9D1DAE1D77
:1001C000BF1D412C512C3201439440175107620747
:1001D000730718F0412C512C3201840D951DA61D7A
:1001E000B71DCC0CDD1CEE1CFF1C37FF02C0689451
:1001F000C0F8000F111F221F331FB694A7949794C5
:1002000087943197A1F62B893C89EB85FC852E0FCD
:100210003F1F2E5F3F4F3C832B8321E0EA893A85C5
:10022000E31301C020E02A83EB81FC810CC080FF36
:1002300005C076956795579547957068B695A795CB
:10024000979587953196B7FDF2CF9F010CC0880F27
:10025000991FAA1FBB1F77FD8160440F551F661FA2
:10026000771F215031090097A105E0E4BE0778F31C
:100270002B833C838C019D010F7711272227332785
:10028000003411052105310559F487FD09C0452BBE
:10029000462B472B29F0805C9F4FAF4FBF4F807894
:1002A0008D839E83AF83B88783E08983CE010196D7
:1002B00002C081E291E00E940C02A096E0E10C9461
:1002C0002C08A8E0B0E0E7E6F1E00C941C0823E07D
:1002D00029838B019C01002737FD039511272227D5
:1002E0003327402F0A83611571058105910519F4A3
:1002F00082E0898335C02EE130E03C832B834423A8
:1003000071F061157105810520E8920771F10027F0
:1003100011279801061B170B280B390B02C08B0104
:100320009C01C901B8010E944508019718161906D9
:100330002CF00D831E832F83388712C0082E04C033
:10034000000F111F221F331F0A94D2F70D831E8343
:100350002F8338872EE130E0281B390B3C832B8319
:10036000CE0101960E940C0204C060E070E080E0C3
:100370009FEC2896E4E00C943808ACE0B0E0E3ECA5
:10038000F1E00C941C0869877A878B879C87BE01F3
:100390006F5F7F4FCE0109960E94CD028981823026
:1003A00091F1823080F1843041F48A81882331F1E7
:1003B00000E010E020E030E829C02B813C8137FDCF
:1003C00022C02F3131058CF78EE190E0821B930B18
:1003D0000D811E812F81388504C03695279517958C
:1003E00007958A95D2F78A81882381F030952095E8
:1003F000109501951F4F2F4F3F4F08C00FEF1FEF74
:100400002FEF3FE703C000E010E09801B801C901F9
:100410002C96E4E00C9438080F931F93CF93FC01C3
:100420004481558166817781C1818081823020F449
:1004300060618FEF90E0A3C0843009F49BC08230EC
:1004400009F492C0411551056105710509F48FC089
:100450002281338122388FEF38070CF057C0E2E851
:10046000FFEFE21BF30BEA31F10564F58A019B0112
:100470000E2E04C036952795179507950A94D2F746
:1004800081E090E0A0E0B0E004C0880F991FAA1FAF
:10049000BB1FEA95D2F70197A109B10984239523DF
:1004A000A623B72341E050E060E070E0892B8A2B5F
:1004B0008B2B19F440E050E0BA01402B512B622BFA
:1004C000732B03C040E050E0BA01DB01CA018F7713
:1004D0009927AA27BB2780349105A105B10539F4D6
:1004E00047FF09C0405C5F4F6F4F7F4F04C0415CC6
:1004F0005F4F6F4F7F4F81E090E0411551056105DF
:1005000020E4720748F580E090E026C020383105ED
:100510008CF5DB01CA018F779927AA27BB27803486
:100520009105A105B10539F447FF09C0405C5F4F53
:100530006F4F7F4F04C0415C5F4F6F4F7F4F77FD20
:1005400004C0C90181589F4F07C07695679557959C
:100550004795C90180589F4F97E0769567955795C5
:1005600047959A95D1F70BC080E090E005C080E0F8
:1005700090E005C08FEF90E040E050E0BA01982F86
:100580009695C0FB97F9362F80FB37F9642F752FAE
:10059000832FCF911F910F910895CF92DF92EF9209
:1005A000DC01FB01CC901196DC90119712968C9196
:1005B00012973FE7E32EE8226E2DA60170E0982FF8
:1005C000991F9927991F13962C91822F880F892B99
:1005D00090E027FB222720F92183009729F5411578
:1005E00051056105710511F482E027C082E89FEF93
:1005F0009383828327E0440F551F661F771F2A9538
:10060000D1F783E0808309C0440F551F661F771F11
:1006100082819381019793838283411551056105FE
:1006200080E4780788F320C08F3F910579F4411565
:1006300051056105710519F484E0808319C0E4FE59
:1006400003C081E0808310C010820EC08F579109D3
:100650009383828383E0808387E0440F551F661F66
:10066000771F8A95D1F770644483558366837783B7
:10067000EF90DF90CF9008950895AF92BF92CF9200
:10068000DF92EF92FF920F931F93CF93DF93C0E01F
:10069000D1E080E1A82E81E0B82E08EE13E0699148
:1006A0007991C8010E949C076B01F50161917191DC
:1006B0005F01EE24D7FCE094FE2CA70196018BE0AD
:1006C0000E945B04C701B6010E94610126E636E67E
:1006D00046EA5FE30E947C000E94BD01882777FD07
:1006E0008095982F0E94FA038BE00E947A06F1E031
:1006F000C031DF07A1F6DF91CF911F910F91FF90DD
:10070000EF90DF90CF90BF90AF9008951F920F921F
:100710000FB60F9211242F933F938F939F93AF9314
:10072000BF9380912A0190912B01A0912C01B0914F
:100730002D0130913201232F2D5F2D3720F40196AA
:10074000A11DB11D05C0232F2A570296A11DB11D61
:100750002093320180932A0190932B01A0932C01C6
:10076000B0932D0180912E0190912F01A091300125
:10077000B09131010196A11DB11D80932E0190937E
:100780002F01A0933001B0933101BF91AF919F91A0
:100790008F913F912F910F900FBE0F901F90189542
:1007A0000F931F939FB7F89400912E0110912F0182
:1007B000209130013091310186B5A89B06C08F3F52
:1007C00021F00F5F1F4F2F4F3F4F9FBF322F212F21
:1007D000102F0027080F111D211D311D42E0000FB1
:1007E000111F221F331F4A95D1F7B801C9011F916C
:1007F0000F910895CF92DF92EF92FF92CF93DF9304
:100800006B017C010E94D003EB010EC00E94D0035B
:100810006C1B7D0B683E734038F081E0C81AD1082C
:10082000E108F108C851DC4FC114D104E104F1041E
:1008300069F7DF91CF91FF90EF90DF90CF9008950F
:10084000789484B5826084BD84B5816084BD85B5AB
:10085000826085BD85B5816085BDEEE6F0E0808172
:1008600081608083E1E8F0E0108280818260808393
:10087000808181608083E0E8F0E080818160808316
:10088000E1EBF0E0808184608083E0EBF0E0808148
:1008900081608083EAE7F0E08081846080838081EA
:1008A0008260808380818160808380818068808392
:1008B0001092C10008953F924F925F926F927F9283
:1008C0008F929F92AF92BF92CF92DF92EF92FF9260
:1008D0000F931F93CF93DF9300D000D0CDB7DEB737
:1008E0008B0129013A0190912001981721F09F3F37
:1008F00009F0CAC104C0E8E6F0E034907EC08093FD
:100900002001E8E6F0E034909FEF391609F4BCC10D
:10091000E1E03E1631F1F2E03F1609F448C0311033
:100920006CC014BC15BC94B5926094BD95B5916033
:1009300095BD282F30E0F901EF56FF4FE491F0E02C
:10094000EE0FFF1FEB55FF4F45915491409342012D
:1009500050934301F901E358FF4F24912093410143
:100960004EC010928000109281009091810098609A
:100970009093810090918100916090938100282F45
:1009800030E0F901EF56FF4FE491F0E0EE0FFF1F6A
:10099000EB55FF4F4591549140933B0150933C01DF
:1009A000F901E358FF4F249120933A0128C0109297
:1009B000B0001092B1009091B00092609093B0009E
:1009C0009091B10091609093B100282F30E0F9012F
:1009D000EF56FF4FE491F0E0EE0FFF1FEB55FF4F96
:1009E000459154914093340150933501F901E358F6
:1009F000FF4F24912093330102C037FC45C161E0D1
:100A00000E9422074801A12CB12C60E072E18AE724
:100A100090E0A50194010E94D207332019F082E0F2
:100A20003812B7C029833A834B835C8369017A010A
:100A300091E0C91AD108E108F108EFEFCE16D10410
:100A4000E104F10409F008F49AC060E472E48FE074
:100A500090E0A50194010E94D20769017A01F1E0BA
:100A6000CF1AD108E108F10882E0381219C09FEFCF
:100A7000C916D104E104F10409F008F401C160E9E8
:100A800070ED83E090E0A50194010E94D207690116
:100A90007A01E1E0CE1AD108E108F10883E001C053
:100AA00082E0FFEFCF16D104E104F10409F008F46D
:100AB00067C068E478EE81E090E0A50194010E94AF
:100AC000D20769017A0181E0C81AD108E108F1086A
:100AD0003320E1F092E039121BC0EFEFCE16D104C3
:100AE000E104F10409F008F4CDC064E274EF80E0A1
:100AF00090E0A50194010E94D20769017A01F1E01A
:100B0000CF1AD108E108F10885E003C083E001C0F5
:100B100084E09FEFC916D104E104F10489F180F16A
:100B200062E17AE780E090E0A50194010E94D2079B
:100B300069017A01E1E0CE1AD108E108F10831102B
:100B400002C084E001C086E0FFEFCF16D104E104CB
:100B5000F104B1F0A8F0C980DA80EB80FC809AE063
:100B6000F594E794D794C7949A95D1F781E0C81A81
:100B7000D108E108F108332031F087E007C081E0B7
:100B8000332011F003C085E085BD2BC08093B100F8
:100B900028C069017A0191E0C91AD108E108F10879
:100BA000C114D104E1E0EE06F10488F068E478EEC7
:100BB00081E090E0A50194010E94D20769017A01C9
:100BC000F1E0CF1AD108E108F10893E001C091E00B
:100BD00081E0381206C080918100887F892B809344
:100BE0008100411451046104710471F0D801AA0F0D
:100BF000BB1FA30192010E94910728EE33E040E061
:100C000050E00E94B00703C02FEF3FEFA90191E031
:100C10003916A1F0E2E03E1619F1311035C0C7BC1B
:100C2000209344013093450140934601509347017E
:100C300080916E00826080936E0026C0D092890001
:100C4000C092880020933D0130933E0140933F01C4
:100C50005093400180916F00826080936F0014C0B8
:100C6000C092B3002093360130933701409338018E
:100C7000509339018091700082608093700004C0AD
:100C800082E084CF84E082CF0F900F900F900F907E
:100C9000DF91CF911F910F91FF90EF90DF90CF9058
:100CA000BF90AF909F908F907F906F905F904F908C
:100CB0003F900895813039F018F08230D1F409C0A6
:100CC00010926E00089580916F008D7F80936F0069
:100CD0000895809170008D7F8093700081E08093F3
:100CE000B0008091B100887F84608093B100109241
:100CF000B3000895CF93C82F809120018C1307C0B3
:100D0000E8E6F0E084919FEF9093200101C08FEF1F
:100D10000E945A0660E08C2FCF910C945A071F92C4
:100D20000F920FB60F9211242F933F934F935F931F
:100D30006F937F938F939F93AF93BF93EF93FF93A3
:100D40008091360190913701A0913801B09139011D
:100D5000892B8A2B8B2B51F190913301E091340137
:100D6000F0913501808189278083809136019091AF
:100D70003701A0913801B0913901181619061A06E9
:100D80001B06C4F48091360190913701A09138017F
:100D9000B09139010197A109B1098093360190936F
:100DA0003701A0933801B093390104C0809120012C
:100DB0000E947A06FF91EF91BF91AF919F918F9121
:100DC0007F916F915F914F913F912F910F900FBE47
:100DD0000F901F9018950E9420040E943C03C0E0D1
:100DE000D0E00E943D032097E1F30E940000F9CF7C
:100DF000833069F028F48130A1F0823011F514C0FD
:100E00008630B1F08730C1F08430D9F404C08091CD
:100E100080008F7703C0809180008F7D8093800059
:100E2000089584B58F7702C084B58F7D84BD089501
:100E30008091B0008F7703C08091B0008F7D809348
:100E4000B0000895CF93DF9390E0FC01E358FF4F8B
:100E50004491FC01EF56FF4F8491882341F190E0CB
:100E6000880F991FFC01E155FF4F25913491D9015D
:100E70008B559F4FFC0185919491C82FD92F9FB717
:100E8000F8948C91611106C0409584238C938881DD
:100E9000842308C0623041F4242F209582238C9350
:100EA0008881842B888302C0842B8C939FBFDF9121
:100EB000CF9108950F931F93CF93DF931F92CDB7D8
:100EC000DEB7282F30E0F901E759FF4F8491F9018F
:100ED000E358FF4F1491F901EF56FF4F049100239F
:100EE000D1F0882321F069830E94F8066981E02F00
:100EF000F0E0EE0FFF1FEB55FF4F85919491DC0161
:100F00009FB7F8948C91611103C01095812301C0A3
:100F1000812B8C939FBF0F90DF91CF911F910F91E9
:100F200008950E94EE07A59F900DB49F900DA49F79
:100F3000800D911D1124089597FB072E16F400943F
:100F400007D077FD09D00E94FA0707FC05D03EF4D0
:100F5000909581959F4F0895709561957F4F089565
:100F6000A1E21A2EAA1BBB1BFD010DC0AA1FBB1FAD
:100F7000EE1FFF1FA217B307E407F50720F0A21B1F
:100F8000B30BE40BF50B661F771F881F991F1A948C
:100F900069F760957095809590959B01AC01BD01B6
:100FA000CF010895052E97FB16F4009407D057FD46
:100FB0000DD00E94B00707FC09D07EF49095809573
:100FC000709561957F4F8F4F9F4F08955095409535
:100FD000309521953F4F4F4F5F4F0895A29FB0012D
:100FE000B39FC001A39F01D0B29F700D811D11243A
:100FF000911D0895AA1BBB1B51E107C0AA1FBB1F6F
:10100000A617B70710F0A61BB70B881F991F5A9594
:10101000A9F780959095BC01CD0108952F923F923C
:101020004F925F926F927F928F929F92AF92BF92F8
:10103000CF92DF92EF92FF920F931F93CF93DF93A4
:10104000CDB7DEB7CA1BDB0B0FB6F894DEBF0FBE01
:10105000CDBF09942A88398848885F846E847D844E
:101060008C849B84AA84B984C884DF80EE80FD8050
:101070000C811B81AA81B981CE0FD11D0FB6F894C6
:10108000DEBF0FBECDBFED0108950E944E0884FF64
:101090000895CB010E944E08805F0895AA279923E6
:1010A00029F4A85F982B11F480E10895903118F489
:1010B000AD5F9295A395990FE8F78A2F9927089528
:0410C000F894FFCFD2
:1010C40004000800080004000400040004000400F4
:1010D4000601C400C400DC00C4000000F7000601DF
:0A10E400FF00000000000000000003
:00000001FF
